{
  "_format": "hh-sol-artifact-1",
  "contractName": "ProtocolsToken",
  "sourceName": "contracts/cake.sol",
  "abi": [
    {
      "anonymous": false,
      "inputs": [
        {
          "indexed": true,
          "internalType": "address",
          "name": "owner",
          "type": "address"
        },
        {
          "indexed": true,
          "internalType": "address",
          "name": "spender",
          "type": "address"
        },
        {
          "indexed": false,
          "internalType": "uint256",
          "name": "value",
          "type": "uint256"
        }
      ],
      "name": "Approval",
      "type": "event"
    },
    {
      "anonymous": false,
      "inputs": [
        {
          "indexed": true,
          "internalType": "address",
          "name": "delegator",
          "type": "address"
        },
        {
          "indexed": true,
          "internalType": "address",
          "name": "fromDelegate",
          "type": "address"
        },
        {
          "indexed": true,
          "internalType": "address",
          "name": "toDelegate",
          "type": "address"
        }
      ],
      "name": "DelegateChanged",
      "type": "event"
    },
    {
      "anonymous": false,
      "inputs": [
        {
          "indexed": true,
          "internalType": "address",
          "name": "delegate",
          "type": "address"
        },
        {
          "indexed": false,
          "internalType": "uint256",
          "name": "previousBalance",
          "type": "uint256"
        },
        {
          "indexed": false,
          "internalType": "uint256",
          "name": "newBalance",
          "type": "uint256"
        }
      ],
      "name": "DelegateVotesChanged",
      "type": "event"
    },
    {
      "anonymous": false,
      "inputs": [
        {
          "indexed": true,
          "internalType": "address",
          "name": "previousOwner",
          "type": "address"
        },
        {
          "indexed": true,
          "internalType": "address",
          "name": "newOwner",
          "type": "address"
        }
      ],
      "name": "OwnershipTransferred",
      "type": "event"
    },
    {
      "anonymous": false,
      "inputs": [
        {
          "indexed": true,
          "internalType": "address",
          "name": "from",
          "type": "address"
        },
        {
          "indexed": true,
          "internalType": "address",
          "name": "to",
          "type": "address"
        },
        {
          "indexed": false,
          "internalType": "uint256",
          "name": "value",
          "type": "uint256"
        }
      ],
      "name": "Transfer",
      "type": "event"
    },
    {
      "inputs": [],
      "name": "DELEGATION_TYPEHASH",
      "outputs": [
        {
          "internalType": "bytes32",
          "name": "",
          "type": "bytes32"
        }
      ],
      "stateMutability": "view",
      "type": "function"
    },
    {
      "inputs": [],
      "name": "DOMAIN_TYPEHASH",
      "outputs": [
        {
          "internalType": "bytes32",
          "name": "",
          "type": "bytes32"
        }
      ],
      "stateMutability": "view",
      "type": "function"
    },
    {
      "inputs": [
        {
          "internalType": "address",
          "name": "owner",
          "type": "address"
        },
        {
          "internalType": "address",
          "name": "spender",
          "type": "address"
        }
      ],
      "name": "allowance",
      "outputs": [
        {
          "internalType": "uint256",
          "name": "",
          "type": "uint256"
        }
      ],
      "stateMutability": "view",
      "type": "function"
    },
    {
      "inputs": [
        {
          "internalType": "address",
          "name": "spender",
          "type": "address"
        },
        {
          "internalType": "uint256",
          "name": "amount",
          "type": "uint256"
        }
      ],
      "name": "approve",
      "outputs": [
        {
          "internalType": "bool",
          "name": "",
          "type": "bool"
        }
      ],
      "stateMutability": "nonpayable",
      "type": "function"
    },
    {
      "inputs": [
        {
          "internalType": "address",
          "name": "account",
          "type": "address"
        }
      ],
      "name": "balanceOf",
      "outputs": [
        {
          "internalType": "uint256",
          "name": "",
          "type": "uint256"
        }
      ],
      "stateMutability": "view",
      "type": "function"
    },
    {
      "inputs": [
        {
          "internalType": "address",
          "name": "",
          "type": "address"
        },
        {
          "internalType": "uint32",
          "name": "",
          "type": "uint32"
        }
      ],
      "name": "checkpoints",
      "outputs": [
        {
          "internalType": "uint32",
          "name": "fromBlock",
          "type": "uint32"
        },
        {
          "internalType": "uint256",
          "name": "votes",
          "type": "uint256"
        }
      ],
      "stateMutability": "view",
      "type": "function"
    },
    {
      "inputs": [],
      "name": "decimals",
      "outputs": [
        {
          "internalType": "uint8",
          "name": "",
          "type": "uint8"
        }
      ],
      "stateMutability": "view",
      "type": "function"
    },
    {
      "inputs": [
        {
          "internalType": "address",
          "name": "spender",
          "type": "address"
        },
        {
          "internalType": "uint256",
          "name": "subtractedValue",
          "type": "uint256"
        }
      ],
      "name": "decreaseAllowance",
      "outputs": [
        {
          "internalType": "bool",
          "name": "",
          "type": "bool"
        }
      ],
      "stateMutability": "nonpayable",
      "type": "function"
    },
    {
      "inputs": [
        {
          "internalType": "address",
          "name": "delegatee",
          "type": "address"
        }
      ],
      "name": "delegate",
      "outputs": [],
      "stateMutability": "nonpayable",
      "type": "function"
    },
    {
      "inputs": [
        {
          "internalType": "address",
          "name": "delegatee",
          "type": "address"
        },
        {
          "internalType": "uint256",
          "name": "nonce",
          "type": "uint256"
        },
        {
          "internalType": "uint256",
          "name": "expiry",
          "type": "uint256"
        },
        {
          "internalType": "uint8",
          "name": "v",
          "type": "uint8"
        },
        {
          "internalType": "bytes32",
          "name": "r",
          "type": "bytes32"
        },
        {
          "internalType": "bytes32",
          "name": "s",
          "type": "bytes32"
        }
      ],
      "name": "delegateBySig",
      "outputs": [],
      "stateMutability": "nonpayable",
      "type": "function"
    },
    {
      "inputs": [
        {
          "internalType": "address",
          "name": "delegator",
          "type": "address"
        }
      ],
      "name": "delegates",
      "outputs": [
        {
          "internalType": "address",
          "name": "",
          "type": "address"
        }
      ],
      "stateMutability": "view",
      "type": "function"
    },
    {
      "inputs": [
        {
          "internalType": "address",
          "name": "account",
          "type": "address"
        }
      ],
      "name": "getCurrentVotes",
      "outputs": [
        {
          "internalType": "uint256",
          "name": "",
          "type": "uint256"
        }
      ],
      "stateMutability": "view",
      "type": "function"
    },
    {
      "inputs": [],
      "name": "getOwner",
      "outputs": [
        {
          "internalType": "address",
          "name": "",
          "type": "address"
        }
      ],
      "stateMutability": "view",
      "type": "function"
    },
    {
      "inputs": [
        {
          "internalType": "address",
          "name": "account",
          "type": "address"
        },
        {
          "internalType": "uint256",
          "name": "blockNumber",
          "type": "uint256"
        }
      ],
      "name": "getPriorVotes",
      "outputs": [
        {
          "internalType": "uint256",
          "name": "",
          "type": "uint256"
        }
      ],
      "stateMutability": "view",
      "type": "function"
    },
    {
      "inputs": [
        {
          "internalType": "address",
          "name": "spender",
          "type": "address"
        },
        {
          "internalType": "uint256",
          "name": "addedValue",
          "type": "uint256"
        }
      ],
      "name": "increaseAllowance",
      "outputs": [
        {
          "internalType": "bool",
          "name": "",
          "type": "bool"
        }
      ],
      "stateMutability": "nonpayable",
      "type": "function"
    },
    {
      "inputs": [
        {
          "internalType": "address",
          "name": "_to",
          "type": "address"
        },
        {
          "internalType": "uint256",
          "name": "_amount",
          "type": "uint256"
        }
      ],
      "name": "mint",
      "outputs": [],
      "stateMutability": "nonpayable",
      "type": "function"
    },
    {
      "inputs": [
        {
          "internalType": "uint256",
          "name": "amount",
          "type": "uint256"
        }
      ],
      "name": "mint",
      "outputs": [
        {
          "internalType": "bool",
          "name": "",
          "type": "bool"
        }
      ],
      "stateMutability": "nonpayable",
      "type": "function"
    },
    {
      "inputs": [],
      "name": "name",
      "outputs": [
        {
          "internalType": "string",
          "name": "",
          "type": "string"
        }
      ],
      "stateMutability": "view",
      "type": "function"
    },
    {
      "inputs": [
        {
          "internalType": "address",
          "name": "",
          "type": "address"
        }
      ],
      "name": "nonces",
      "outputs": [
        {
          "internalType": "uint256",
          "name": "",
          "type": "uint256"
        }
      ],
      "stateMutability": "view",
      "type": "function"
    },
    {
      "inputs": [
        {
          "internalType": "address",
          "name": "",
          "type": "address"
        }
      ],
      "name": "numCheckpoints",
      "outputs": [
        {
          "internalType": "uint32",
          "name": "",
          "type": "uint32"
        }
      ],
      "stateMutability": "view",
      "type": "function"
    },
    {
      "inputs": [],
      "name": "owner",
      "outputs": [
        {
          "internalType": "address",
          "name": "",
          "type": "address"
        }
      ],
      "stateMutability": "view",
      "type": "function"
    },
    {
      "inputs": [],
      "name": "renounceOwnership",
      "outputs": [],
      "stateMutability": "nonpayable",
      "type": "function"
    },
    {
      "inputs": [],
      "name": "symbol",
      "outputs": [
        {
          "internalType": "string",
          "name": "",
          "type": "string"
        }
      ],
      "stateMutability": "view",
      "type": "function"
    },
    {
      "inputs": [],
      "name": "totalSupply",
      "outputs": [
        {
          "internalType": "uint256",
          "name": "",
          "type": "uint256"
        }
      ],
      "stateMutability": "view",
      "type": "function"
    },
    {
      "inputs": [
        {
          "internalType": "address",
          "name": "recipient",
          "type": "address"
        },
        {
          "internalType": "uint256",
          "name": "amount",
          "type": "uint256"
        }
      ],
      "name": "transfer",
      "outputs": [
        {
          "internalType": "bool",
          "name": "",
          "type": "bool"
        }
      ],
      "stateMutability": "nonpayable",
      "type": "function"
    },
    {
      "inputs": [
        {
          "internalType": "address",
          "name": "sender",
          "type": "address"
        },
        {
          "internalType": "address",
          "name": "recipient",
          "type": "address"
        },
        {
          "internalType": "uint256",
          "name": "amount",
          "type": "uint256"
        }
      ],
      "name": "transferFrom",
      "outputs": [
        {
          "internalType": "bool",
          "name": "",
          "type": "bool"
        }
      ],
      "stateMutability": "nonpayable",
      "type": "function"
    },
    {
      "inputs": [
        {
          "internalType": "address",
          "name": "newOwner",
          "type": "address"
        }
      ],
      "name": "transferOwnership",
      "outputs": [],
      "stateMutability": "nonpayable",
      "type": "function"
    }
  ],
  "bytecode": "0x60806040523480156200001157600080fd5b506040518060400160405280600981526020016827bbb7102a37b5b2b760b91b8152506040518060400160405280600381526020016227aba760e91b815250600062000062620000ed60201b60201c565b600080546001600160a01b0319166001600160a01b0383169081178255604051929350917f8be0079c531659141344cd1fd0a4f28419497f9722a3daafe3b4186f6b6457e0908290a3508151620000c1906004906020850190620000f1565b508051620000d7906005906020840190620000f1565b50506006805460ff19166012179055506200018d565b3390565b828054600181600116156101000203166002900490600052602060002090601f016020900481019282601f106200013457805160ff191683800117855562000164565b8280016001018555821562000164579182015b828111156200016457825182559160200191906001019062000147565b506200017292915062000176565b5090565b5b8082111562000172576000815560010162000177565b611c16806200019d6000396000f3fe608060405234801561001057600080fd5b50600436106101b95760003560e01c8063782d6fe1116100f9578063a9059cbb11610097578063dd62ed3e11610071578063dd62ed3e1461056c578063e7a324dc1461059a578063f1127ed8146105a2578063f2fde38b146105f4576101b9565b8063a9059cbb146104d3578063b4b5ea57146104ff578063c3cda52014610525576101b9565b80638da5cb5b116100d35780638da5cb5b1461047a57806395d89b4114610482578063a0712d681461048a578063a457c2d7146104a7576101b9565b8063782d6fe1146104205780637ecebe001461044c578063893d20e814610472576101b9565b806339509351116101665780635c19a95c116101405780635c19a95c1461038d5780636fcfff45146103b357806370a08231146103f2578063715018a614610418576101b9565b806339509351146102f157806340c10f191461031d578063587cde1e1461034b576101b9565b806320606b701161019757806320606b701461029557806323b872dd1461029d578063313ce567146102d3576101b9565b806306fdde03146101be578063095ea7b31461023b57806318160ddd1461027b575b600080fd5b6101c661061a565b6040805160208082528351818301528351919283929083019185019080838360005b838110156102005781810151838201526020016101e8565b50505050905090810190601f16801561022d5780820380516001836020036101000a031916815260200191505b509250505060405180910390f35b6102676004803603604081101561025157600080fd5b506001600160a01b0381351690602001356106b0565b604080519115158252519081900360200190f35b6102836106ce565b60408051918252519081900360200190f35b6102836106d4565b610267600480360360608110156102b357600080fd5b506001600160a01b038135811691602081013590911690604001356106f8565b6102db61077f565b6040805160ff9092168252519081900360200190f35b6102676004803603604081101561030757600080fd5b506001600160a01b038135169060200135610788565b6103496004803603604081101561033357600080fd5b506001600160a01b0381351690602001356107d6565b005b6103716004803603602081101561036157600080fd5b50356001600160a01b0316610873565b604080516001600160a01b039092168252519081900360200190f35b610349600480360360208110156103a357600080fd5b50356001600160a01b0316610891565b6103d9600480360360208110156103c957600080fd5b50356001600160a01b031661089e565b6040805163ffffffff9092168252519081900360200190f35b6102836004803603602081101561040857600080fd5b50356001600160a01b03166108b6565b6103496108d1565b6102836004803603604081101561043657600080fd5b506001600160a01b038135169060200135610992565b6102836004803603602081101561046257600080fd5b50356001600160a01b0316610b9a565b610371610bac565b610371610bbb565b6101c6610bca565b610267600480360360208110156104a057600080fd5b5035610c2b565b610267600480360360408110156104bd57600080fd5b506001600160a01b038135169060200135610cb0565b610267600480360360408110156104e957600080fd5b506001600160a01b038135169060200135610d18565b6102836004803603602081101561051557600080fd5b50356001600160a01b0316610d2c565b610349600480360360c081101561053b57600080fd5b506001600160a01b038135169060208101359060408101359060ff6060820135169060808101359060a00135610d90565b6102836004803603604081101561058257600080fd5b506001600160a01b038135811691602001351661101e565b610283611049565b6105d4600480360360408110156105b857600080fd5b5080356001600160a01b0316906020013563ffffffff1661106d565b6040805163ffffffff909316835260208301919091528051918290030190f35b6103496004803603602081101561060a57600080fd5b50356001600160a01b031661109a565b60048054604080516020601f60026000196101006001881615020190951694909404938401819004810282018101909252828152606093909290918301828280156106a65780601f1061067b576101008083540402835291602001916106a6565b820191906000526020600020905b81548152906001019060200180831161068957829003601f168201915b5050505050905090565b60006106c46106bd61110d565b8484611111565b5060015b92915050565b60035490565b7f8cad95687ba82c2ce50e74f7b754645e5117c3a5bec8151c0726d5857980a86681565b60006107058484846111fd565b6107758461071161110d565b61077085604051806060016040528060288152602001611ac5602891396001600160a01b038a1660009081526002602052604081209061074f61110d565b6001600160a01b03168152602081019190915260400160002054919061134f565b611111565b5060019392505050565b60065460ff1690565b60006106c461079561110d565b8461077085600260006107a661110d565b6001600160a01b03908116825260208083019390935260409182016000908120918c1681529252902054906113e6565b6107de61110d565b6000546001600160a01b03908116911614610840576040805162461bcd60e51b815260206004820181905260248201527f4f776e61626c653a2063616c6c6572206973206e6f7420746865206f776e6572604482015290519081900360640190fd5b61084a8282611440565b6001600160a01b0380831660009081526007602052604081205461086f921683611526565b5050565b6001600160a01b039081166000908152600760205260409020541690565b61089b3382611668565b50565b60096020526000908152604090205463ffffffff1681565b6001600160a01b031660009081526001602052604090205490565b6108d961110d565b6000546001600160a01b0390811691161461093b576040805162461bcd60e51b815260206004820181905260248201527f4f776e61626c653a2063616c6c6572206973206e6f7420746865206f776e6572604482015290519081900360640190fd5b600080546040516001600160a01b03909116907f8be0079c531659141344cd1fd0a4f28419497f9722a3daafe3b4186f6b6457e0908390a36000805473ffffffffffffffffffffffffffffffffffffffff19169055565b60004382106109d25760405162461bcd60e51b815260040180806020018281038252602c815260200180611a47602c913960400191505060405180910390fd5b6001600160a01b03831660009081526009602052604090205463ffffffff1680610a005760009150506106c8565b6001600160a01b038416600090815260086020908152604080832063ffffffff600019860181168552925290912054168310610a6f576001600160a01b03841660009081526008602090815260408083206000199490940163ffffffff168352929052206001015490506106c8565b6001600160a01b038416600090815260086020908152604080832083805290915290205463ffffffff16831015610aaa5760009150506106c8565b600060001982015b8163ffffffff168163ffffffff161115610b6357600282820363ffffffff16048103610adc6119c0565b506001600160a01b038716600090815260086020908152604080832063ffffffff808616855290835292819020815180830190925280549093168082526001909301549181019190915290871415610b3e576020015194506106c89350505050565b805163ffffffff16871115610b5557819350610b5c565b6001820392505b5050610ab2565b506001600160a01b038516600090815260086020908152604080832063ffffffff9094168352929052206001015491505092915050565b600a6020526000908152604090205481565b6000610bb6610bbb565b905090565b6000546001600160a01b031690565b60058054604080516020601f60026000196101006001881615020190951694909404938401819004810282018101909252828152606093909290918301828280156106a65780601f1061067b576101008083540402835291602001916106a6565b6000610c3561110d565b6000546001600160a01b03908116911614610c97576040805162461bcd60e51b815260206004820181905260248201527f4f776e61626c653a2063616c6c6572206973206e6f7420746865206f776e6572604482015290519081900360640190fd5b610ca8610ca261110d565b83611440565b506001919050565b60006106c4610cbd61110d565b8461077085604051806060016040528060258152602001611b9a6025913960026000610ce761110d565b6001600160a01b03908116825260208083019390935260409182016000908120918d1681529252902054919061134f565b60006106c4610d2561110d565b84846111fd565b6001600160a01b03811660009081526009602052604081205463ffffffff1680610d57576000610d89565b6001600160a01b038316600090815260086020908152604080832063ffffffff60001986011684529091529020600101545b9392505050565b60007f8cad95687ba82c2ce50e74f7b754645e5117c3a5bec8151c0726d5857980a866610dbb61061a565b80519060200120610dca61170a565b60408051602080820195909552808201939093526060830191909152306080808401919091528151808403909101815260a0830182528051908401207fe48329057bfd03d55e49b547132e39cffd9c1820ad7b9d4c5307691425d15adf60c08401526001600160a01b038b1660e084015261010083018a90526101208084018a905282518085039091018152610140840183528051908501207f19010000000000000000000000000000000000000000000000000000000000006101608501526101628401829052610182808501829052835180860390910181526101a285018085528151918701919091206000918290526101c2860180865281905260ff8b166101e287015261020286018a90526102228601899052935192965090949293909260019261024280840193601f198301929081900390910190855afa158015610f18573d6000803e3d6000fd5b5050604051601f1901519150506001600160a01b038116610f6a5760405162461bcd60e51b815260040180806020018281038252602b815260200180611a73602b913960400191505060405180910390fd5b6001600160a01b0381166000908152600a602052604090208054600181019091558914610fc85760405162461bcd60e51b8152600401808060200182810382526027815260200180611a9e6027913960400191505060405180910390fd5b874211156110075760405162461bcd60e51b815260040180806020018281038252602b815260200180611b26602b913960400191505060405180910390fd5b611011818b611668565b505050505b505050505050565b6001600160a01b03918216600090815260026020908152604080832093909416825291909152205490565b7fe48329057bfd03d55e49b547132e39cffd9c1820ad7b9d4c5307691425d15adf81565b60086020908152600092835260408084209091529082529020805460019091015463ffffffff9091169082565b6110a261110d565b6000546001600160a01b03908116911614611104576040805162461bcd60e51b815260206004820181905260248201527f4f776e61626c653a2063616c6c6572206973206e6f7420746865206f776e6572604482015290519081900360640190fd5b61089b8161170e565b3390565b6001600160a01b0383166111565760405162461bcd60e51b81526004018080602001828103825260248152602001806119fd6024913960400191505060405180910390fd5b6001600160a01b03821661119b5760405162461bcd60e51b8152600401808060200182810382526022815260200180611bbf6022913960400191505060405180910390fd5b6001600160a01b03808416600081815260026020908152604080832094871680845294825291829020859055815185815291517f8c5be1e5ebec7d5bd14f71427d1e84f3dd0314c0f7b2291e5b200ac8c7c3b9259281900390910190a3505050565b6001600160a01b0383166112425760405162461bcd60e51b81526004018080602001828103825260258152602001806119d86025913960400191505060405180910390fd5b6001600160a01b0382166112875760405162461bcd60e51b8152600401808060200182810382526023815260200180611b776023913960400191505060405180910390fd5b6112c481604051806060016040528060268152602001611b51602691396001600160a01b038616600090815260016020526040902054919061134f565b6001600160a01b0380851660009081526001602052604080822093909355908416815220546112f390826113e6565b6001600160a01b0380841660008181526001602090815260409182902094909455805185815290519193928716927fddf252ad1be2c89b69c2b068fc378daa952ba7f163c4a11628f55a4df523b3ef92918290030190a3505050565b600081848411156113de5760405162461bcd60e51b81526004018080602001828103825283818151815260200191508051906020019080838360005b838110156113a357818101518382015260200161138b565b50505050905090810190601f1680156113d05780820380516001836020036101000a031916815260200191505b509250505060405180910390fd5b505050900390565b600082820183811015610d89576040805162461bcd60e51b815260206004820152601b60248201527f536166654d6174683a206164646974696f6e206f766572666c6f770000000000604482015290519081900360640190fd5b6001600160a01b03821661149b576040805162461bcd60e51b815260206004820152601f60248201527f42455032303a206d696e7420746f20746865207a65726f206164647265737300604482015290519081900360640190fd5b6003546114a890826113e6565b6003556001600160a01b0382166000908152600160205260409020546114ce90826113e6565b6001600160a01b03831660008181526001602090815260408083209490945583518581529351929391927fddf252ad1be2c89b69c2b068fc378daa952ba7f163c4a11628f55a4df523b3ef9281900390910190a35050565b816001600160a01b0316836001600160a01b0316141580156115485750600081115b15611663576001600160a01b038316156115da576001600160a01b03831660009081526009602052604081205463ffffffff1690816115885760006115ba565b6001600160a01b038516600090815260086020908152604080832063ffffffff60001987011684529091529020600101545b905060006115c882856117bb565b90506115d6868484846117fd565b5050505b6001600160a01b03821615611663576001600160a01b03821660009081526009602052604081205463ffffffff169081611615576000611647565b6001600160a01b038416600090815260086020908152604080832063ffffffff60001987011684529091529020600101545b9050600061165582856113e6565b9050611016858484846117fd565b505050565b6001600160a01b038083166000908152600760205260408120549091169061168f846108b6565b6001600160a01b03858116600081815260076020526040808220805473ffffffffffffffffffffffffffffffffffffffff1916898616908117909155905194955093928616927f3134e8a2e6d97e929a7e54011ea5485d7d196dd5f0ba4d4ef95803e8e3fc257f9190a4611704828483611526565b50505050565b4690565b6001600160a01b0381166117535760405162461bcd60e51b8152600401808060200182810382526026815260200180611a216026913960400191505060405180910390fd5b600080546040516001600160a01b03808516939216917f8be0079c531659141344cd1fd0a4f28419497f9722a3daafe3b4186f6b6457e091a36000805473ffffffffffffffffffffffffffffffffffffffff19166001600160a01b0392909216919091179055565b6000610d8983836040518060400160405280601e81526020017f536166654d6174683a207375627472616374696f6e206f766572666c6f77000081525061134f565b600061182143604051806060016040528060398152602001611aed60399139611962565b905060008463ffffffff1611801561186a57506001600160a01b038516600090815260086020908152604080832063ffffffff6000198901811685529252909120548282169116145b156118a7576001600160a01b038516600090815260086020908152604080832063ffffffff60001989011684529091529020600101829055611918565b60408051808201825263ffffffff808416825260208083018681526001600160a01b038a166000818152600884528681208b8616825284528681209551865490861663ffffffff19918216178755925160019687015590815260099092529390208054928801909116919092161790555b604080518481526020810184905281516001600160a01b038816927fdec2bacdd2f05b59de34da9b523dff8be42e5e38e818c82fdb0bae774387a724928290030190a25050505050565b60008164010000000084106119b85760405162461bcd60e51b81526020600482018181528351602484015283519092839260449091019190850190808383600083156113a357818101518382015260200161138b565b509192915050565b60408051808201909152600080825260208201529056fe42455032303a207472616e736665722066726f6d20746865207a65726f206164647265737342455032303a20617070726f76652066726f6d20746865207a65726f20616464726573734f776e61626c653a206e6577206f776e657220697320746865207a65726f206164647265737350726f746f636f6c733a3a6765745072696f72566f7465733a206e6f74207965742064657465726d696e656450726f746f636f6c733a3a64656c656761746542795369673a20696e76616c6964207369676e617475726550726f746f636f6c733a3a64656c656761746542795369673a20696e76616c6964206e6f6e636542455032303a207472616e7366657220616d6f756e74206578636565647320616c6c6f77616e636550726f746f636f6c733a3a5f7772697465436865636b706f696e743a20626c6f636b206e756d6265722065786365656473203332206269747350726f746f636f6c733a3a64656c656761746542795369673a207369676e6174757265206578706972656442455032303a207472616e7366657220616d6f756e7420657863656564732062616c616e636542455032303a207472616e7366657220746f20746865207a65726f206164647265737342455032303a2064656372656173656420616c6c6f77616e63652062656c6f77207a65726f42455032303a20617070726f766520746f20746865207a65726f2061646472657373a2646970667358221220177578d22e4f11f46d633a05ac9dd8dc171e040e133bd055209ce7a9bedd4b3164736f6c634300060c0033",
  "linkReferences": {},
  "deployedLinkReferences": {}
}