{
  "_format": "hh-sol-artifact-1",
  "contractName": "SyrupBar",
  "sourceName": "contracts/syrup.sol",
  "abi": [
    {
      "inputs": [
        {
          "internalType": "contract ProtocolsToken",
          "name": "_Protocols",
          "type": "address"
        }
      ],
      "stateMutability": "nonpayable",
      "type": "constructor"
    },
    {
      "anonymous": false,
      "inputs": [
        {
          "indexed": true,
          "internalType": "address",
          "name": "owner",
          "type": "address"
        },
        {
          "indexed": true,
          "internalType": "address",
          "name": "spender",
          "type": "address"
        },
        {
          "indexed": false,
          "internalType": "uint256",
          "name": "value",
          "type": "uint256"
        }
      ],
      "name": "Approval",
      "type": "event"
    },
    {
      "anonymous": false,
      "inputs": [
        {
          "indexed": true,
          "internalType": "address",
          "name": "delegator",
          "type": "address"
        },
        {
          "indexed": true,
          "internalType": "address",
          "name": "fromDelegate",
          "type": "address"
        },
        {
          "indexed": true,
          "internalType": "address",
          "name": "toDelegate",
          "type": "address"
        }
      ],
      "name": "DelegateChanged",
      "type": "event"
    },
    {
      "anonymous": false,
      "inputs": [
        {
          "indexed": true,
          "internalType": "address",
          "name": "delegate",
          "type": "address"
        },
        {
          "indexed": false,
          "internalType": "uint256",
          "name": "previousBalance",
          "type": "uint256"
        },
        {
          "indexed": false,
          "internalType": "uint256",
          "name": "newBalance",
          "type": "uint256"
        }
      ],
      "name": "DelegateVotesChanged",
      "type": "event"
    },
    {
      "anonymous": false,
      "inputs": [
        {
          "indexed": true,
          "internalType": "address",
          "name": "previousOwner",
          "type": "address"
        },
        {
          "indexed": true,
          "internalType": "address",
          "name": "newOwner",
          "type": "address"
        }
      ],
      "name": "OwnershipTransferred",
      "type": "event"
    },
    {
      "anonymous": false,
      "inputs": [
        {
          "indexed": true,
          "internalType": "address",
          "name": "from",
          "type": "address"
        },
        {
          "indexed": true,
          "internalType": "address",
          "name": "to",
          "type": "address"
        },
        {
          "indexed": false,
          "internalType": "uint256",
          "name": "value",
          "type": "uint256"
        }
      ],
      "name": "Transfer",
      "type": "event"
    },
    {
      "inputs": [],
      "name": "DELEGATION_TYPEHASH",
      "outputs": [
        {
          "internalType": "bytes32",
          "name": "",
          "type": "bytes32"
        }
      ],
      "stateMutability": "view",
      "type": "function"
    },
    {
      "inputs": [],
      "name": "DOMAIN_TYPEHASH",
      "outputs": [
        {
          "internalType": "bytes32",
          "name": "",
          "type": "bytes32"
        }
      ],
      "stateMutability": "view",
      "type": "function"
    },
    {
      "inputs": [],
      "name": "Protocols",
      "outputs": [
        {
          "internalType": "contract ProtocolsToken",
          "name": "",
          "type": "address"
        }
      ],
      "stateMutability": "view",
      "type": "function"
    },
    {
      "inputs": [
        {
          "internalType": "address",
          "name": "owner",
          "type": "address"
        },
        {
          "internalType": "address",
          "name": "spender",
          "type": "address"
        }
      ],
      "name": "allowance",
      "outputs": [
        {
          "internalType": "uint256",
          "name": "",
          "type": "uint256"
        }
      ],
      "stateMutability": "view",
      "type": "function"
    },
    {
      "inputs": [
        {
          "internalType": "address",
          "name": "spender",
          "type": "address"
        },
        {
          "internalType": "uint256",
          "name": "amount",
          "type": "uint256"
        }
      ],
      "name": "approve",
      "outputs": [
        {
          "internalType": "bool",
          "name": "",
          "type": "bool"
        }
      ],
      "stateMutability": "nonpayable",
      "type": "function"
    },
    {
      "inputs": [
        {
          "internalType": "address",
          "name": "account",
          "type": "address"
        }
      ],
      "name": "balanceOf",
      "outputs": [
        {
          "internalType": "uint256",
          "name": "",
          "type": "uint256"
        }
      ],
      "stateMutability": "view",
      "type": "function"
    },
    {
      "inputs": [
        {
          "internalType": "address",
          "name": "_from",
          "type": "address"
        },
        {
          "internalType": "uint256",
          "name": "_amount",
          "type": "uint256"
        }
      ],
      "name": "burn",
      "outputs": [],
      "stateMutability": "nonpayable",
      "type": "function"
    },
    {
      "inputs": [
        {
          "internalType": "address",
          "name": "",
          "type": "address"
        },
        {
          "internalType": "uint32",
          "name": "",
          "type": "uint32"
        }
      ],
      "name": "checkpoints",
      "outputs": [
        {
          "internalType": "uint32",
          "name": "fromBlock",
          "type": "uint32"
        },
        {
          "internalType": "uint256",
          "name": "votes",
          "type": "uint256"
        }
      ],
      "stateMutability": "view",
      "type": "function"
    },
    {
      "inputs": [],
      "name": "decimals",
      "outputs": [
        {
          "internalType": "uint8",
          "name": "",
          "type": "uint8"
        }
      ],
      "stateMutability": "view",
      "type": "function"
    },
    {
      "inputs": [
        {
          "internalType": "address",
          "name": "spender",
          "type": "address"
        },
        {
          "internalType": "uint256",
          "name": "subtractedValue",
          "type": "uint256"
        }
      ],
      "name": "decreaseAllowance",
      "outputs": [
        {
          "internalType": "bool",
          "name": "",
          "type": "bool"
        }
      ],
      "stateMutability": "nonpayable",
      "type": "function"
    },
    {
      "inputs": [
        {
          "internalType": "address",
          "name": "delegatee",
          "type": "address"
        }
      ],
      "name": "delegate",
      "outputs": [],
      "stateMutability": "nonpayable",
      "type": "function"
    },
    {
      "inputs": [
        {
          "internalType": "address",
          "name": "delegatee",
          "type": "address"
        },
        {
          "internalType": "uint256",
          "name": "nonce",
          "type": "uint256"
        },
        {
          "internalType": "uint256",
          "name": "expiry",
          "type": "uint256"
        },
        {
          "internalType": "uint8",
          "name": "v",
          "type": "uint8"
        },
        {
          "internalType": "bytes32",
          "name": "r",
          "type": "bytes32"
        },
        {
          "internalType": "bytes32",
          "name": "s",
          "type": "bytes32"
        }
      ],
      "name": "delegateBySig",
      "outputs": [],
      "stateMutability": "nonpayable",
      "type": "function"
    },
    {
      "inputs": [
        {
          "internalType": "address",
          "name": "delegator",
          "type": "address"
        }
      ],
      "name": "delegates",
      "outputs": [
        {
          "internalType": "address",
          "name": "",
          "type": "address"
        }
      ],
      "stateMutability": "view",
      "type": "function"
    },
    {
      "inputs": [
        {
          "internalType": "address",
          "name": "account",
          "type": "address"
        }
      ],
      "name": "getCurrentVotes",
      "outputs": [
        {
          "internalType": "uint256",
          "name": "",
          "type": "uint256"
        }
      ],
      "stateMutability": "view",
      "type": "function"
    },
    {
      "inputs": [],
      "name": "getOwner",
      "outputs": [
        {
          "internalType": "address",
          "name": "",
          "type": "address"
        }
      ],
      "stateMutability": "view",
      "type": "function"
    },
    {
      "inputs": [
        {
          "internalType": "address",
          "name": "account",
          "type": "address"
        },
        {
          "internalType": "uint256",
          "name": "blockNumber",
          "type": "uint256"
        }
      ],
      "name": "getPriorVotes",
      "outputs": [
        {
          "internalType": "uint256",
          "name": "",
          "type": "uint256"
        }
      ],
      "stateMutability": "view",
      "type": "function"
    },
    {
      "inputs": [
        {
          "internalType": "address",
          "name": "spender",
          "type": "address"
        },
        {
          "internalType": "uint256",
          "name": "addedValue",
          "type": "uint256"
        }
      ],
      "name": "increaseAllowance",
      "outputs": [
        {
          "internalType": "bool",
          "name": "",
          "type": "bool"
        }
      ],
      "stateMutability": "nonpayable",
      "type": "function"
    },
    {
      "inputs": [
        {
          "internalType": "address",
          "name": "_to",
          "type": "address"
        },
        {
          "internalType": "uint256",
          "name": "_amount",
          "type": "uint256"
        }
      ],
      "name": "mint",
      "outputs": [],
      "stateMutability": "nonpayable",
      "type": "function"
    },
    {
      "inputs": [
        {
          "internalType": "uint256",
          "name": "amount",
          "type": "uint256"
        }
      ],
      "name": "mint",
      "outputs": [
        {
          "internalType": "bool",
          "name": "",
          "type": "bool"
        }
      ],
      "stateMutability": "nonpayable",
      "type": "function"
    },
    {
      "inputs": [],
      "name": "name",
      "outputs": [
        {
          "internalType": "string",
          "name": "",
          "type": "string"
        }
      ],
      "stateMutability": "view",
      "type": "function"
    },
    {
      "inputs": [
        {
          "internalType": "address",
          "name": "",
          "type": "address"
        }
      ],
      "name": "nonces",
      "outputs": [
        {
          "internalType": "uint256",
          "name": "",
          "type": "uint256"
        }
      ],
      "stateMutability": "view",
      "type": "function"
    },
    {
      "inputs": [
        {
          "internalType": "address",
          "name": "",
          "type": "address"
        }
      ],
      "name": "numCheckpoints",
      "outputs": [
        {
          "internalType": "uint32",
          "name": "",
          "type": "uint32"
        }
      ],
      "stateMutability": "view",
      "type": "function"
    },
    {
      "inputs": [],
      "name": "owner",
      "outputs": [
        {
          "internalType": "address",
          "name": "",
          "type": "address"
        }
      ],
      "stateMutability": "view",
      "type": "function"
    },
    {
      "inputs": [],
      "name": "renounceOwnership",
      "outputs": [],
      "stateMutability": "nonpayable",
      "type": "function"
    },
    {
      "inputs": [
        {
          "internalType": "address",
          "name": "_to",
          "type": "address"
        },
        {
          "internalType": "uint256",
          "name": "_amount",
          "type": "uint256"
        }
      ],
      "name": "safeProtocolsTransfer",
      "outputs": [],
      "stateMutability": "nonpayable",
      "type": "function"
    },
    {
      "inputs": [],
      "name": "symbol",
      "outputs": [
        {
          "internalType": "string",
          "name": "",
          "type": "string"
        }
      ],
      "stateMutability": "view",
      "type": "function"
    },
    {
      "inputs": [],
      "name": "totalSupply",
      "outputs": [
        {
          "internalType": "uint256",
          "name": "",
          "type": "uint256"
        }
      ],
      "stateMutability": "view",
      "type": "function"
    },
    {
      "inputs": [
        {
          "internalType": "address",
          "name": "recipient",
          "type": "address"
        },
        {
          "internalType": "uint256",
          "name": "amount",
          "type": "uint256"
        }
      ],
      "name": "transfer",
      "outputs": [
        {
          "internalType": "bool",
          "name": "",
          "type": "bool"
        }
      ],
      "stateMutability": "nonpayable",
      "type": "function"
    },
    {
      "inputs": [
        {
          "internalType": "address",
          "name": "sender",
          "type": "address"
        },
        {
          "internalType": "address",
          "name": "recipient",
          "type": "address"
        },
        {
          "internalType": "uint256",
          "name": "amount",
          "type": "uint256"
        }
      ],
      "name": "transferFrom",
      "outputs": [
        {
          "internalType": "bool",
          "name": "",
          "type": "bool"
        }
      ],
      "stateMutability": "nonpayable",
      "type": "function"
    },
    {
      "inputs": [
        {
          "internalType": "address",
          "name": "newOwner",
          "type": "address"
        }
      ],
      "name": "transferOwnership",
      "outputs": [],
      "stateMutability": "nonpayable",
      "type": "function"
    }
  ],
  "bytecode": "0x60806040523480156200001157600080fd5b506040516200225838038062002258833981810160405260208110156200003757600080fd5b5051604080518082018252600e81526d29bcb93ab82130b9102a37b5b2b760911b60208281019190915282518084019093526005835264053595255560dc1b908301529060006200008762000136565b600080546001600160a01b0319166001600160a01b0383169081178255604051929350917f8be0079c531659141344cd1fd0a4f28419497f9722a3daafe3b4186f6b6457e0908290a3508151620000e69060049060208501906200013a565b508051620000fc9060059060208401906200013a565b5050600680546001600160a01b0390931661010002610100600160a81b031960ff19909416601217939093169290921790915550620001d6565b3390565b828054600181600116156101000203166002900490600052602060002090601f016020900481019282601f106200017d57805160ff1916838001178555620001ad565b82800160010185558215620001ad579182015b82811115620001ad57825182559160200191906001019062000190565b50620001bb929150620001bf565b5090565b5b80821115620001bb5760008155600101620001c0565b61207280620001e66000396000f3fe608060405234801561001057600080fd5b50600436106101da5760003560e01c80637ecebe0011610104578063a9059cbb116100a2578063e7a324dc11610071578063e7a324dc14610613578063f1127ed81461061b578063f2fde38b1461066d578063f63fff0814610693576101da565b8063a9059cbb1461054c578063b4b5ea5714610578578063c3cda5201461059e578063dd62ed3e146105e5576101da565b806395d89b41116100de57806395d89b41146104cf5780639dc29fac146104d7578063a0712d6814610503578063a457c2d714610520576101da565b80637ecebe0014610499578063893d20e8146104bf5780638da5cb5b146104c7576101da565b80633c0905f31161017c5780636fcfff451161014b5780636fcfff451461040057806370a082311461043f578063715018a614610465578063782d6fe11461046d576101da565b80633c0905f31461033e57806340c10f191461036c578063587cde1e146103985780635c19a95c146103da576101da565b806320606b70116101b857806320606b70146102b657806323b872dd146102be578063313ce567146102f45780633950935114610312576101da565b806306fdde03146101df578063095ea7b31461025c57806318160ddd1461029c575b600080fd5b6101e761069b565b6040805160208082528351818301528351919283929083019185019080838360005b83811015610221578181015183820152602001610209565b50505050905090810190601f16801561024e5780820380516001836020036101000a031916815260200191505b509250505060405180910390f35b6102886004803603604081101561027257600080fd5b506001600160a01b038135169060200135610731565b604080519115158252519081900360200190f35b6102a461074f565b60408051918252519081900360200190f35b6102a4610755565b610288600480360360608110156102d457600080fd5b506001600160a01b03813581169160208101359091169060400135610779565b6102fc610800565b6040805160ff9092168252519081900360200190f35b6102886004803603604081101561032857600080fd5b506001600160a01b038135169060200135610809565b61036a6004803603604081101561035457600080fd5b506001600160a01b038135169060200135610857565b005b61036a6004803603604081101561038257600080fd5b506001600160a01b038135169060200135610a7c565b6103be600480360360208110156103ae57600080fd5b50356001600160a01b0316610b19565b604080516001600160a01b039092168252519081900360200190f35b61036a600480360360208110156103f057600080fd5b50356001600160a01b0316610b37565b6104266004803603602081101561041657600080fd5b50356001600160a01b0316610b44565b6040805163ffffffff9092168252519081900360200190f35b6102a46004803603602081101561045557600080fd5b50356001600160a01b0316610b5c565b61036a610b77565b6102a46004803603604081101561048357600080fd5b506001600160a01b038135169060200135610c38565b6102a4600480360360208110156104af57600080fd5b50356001600160a01b0316610e40565b6103be610e52565b6103be610e61565b6101e7610e70565b61036a600480360360408110156104ed57600080fd5b506001600160a01b038135169060200135610ed1565b6102886004803603602081101561051957600080fd5b5035610f45565b6102886004803603604081101561053657600080fd5b506001600160a01b038135169060200135610fca565b6102886004803603604081101561056257600080fd5b506001600160a01b038135169060200135611032565b6102a46004803603602081101561058e57600080fd5b50356001600160a01b0316611046565b61036a600480360360c08110156105b457600080fd5b506001600160a01b038135169060208101359060408101359060ff6060820135169060808101359060a001356110aa565b6102a4600480360360408110156105fb57600080fd5b506001600160a01b0381358116916020013516611338565b6102a4611363565b61064d6004803603604081101561063157600080fd5b5080356001600160a01b0316906020013563ffffffff16611387565b6040805163ffffffff909316835260208301919091528051918290030190f35b61036a6004803603602081101561068357600080fd5b50356001600160a01b03166113b4565b6103be611427565b60048054604080516020601f60026000196101006001881615020190951694909404938401819004810282018101909252828152606093909290918301828280156107275780601f106106fc57610100808354040283529160200191610727565b820191906000526020600020905b81548152906001019060200180831161070a57829003601f168201915b5050505050905090565b600061074561073e61143b565b848461143f565b5060015b92915050565b60035490565b7f8cad95687ba82c2ce50e74f7b754645e5117c3a5bec8151c0726d5857980a86681565b600061078684848461152b565b6107f68461079261143b565b6107f185604051806060016040528060288152602001611ede602891396001600160a01b038a166000908152600260205260408120906107d061143b565b6001600160a01b03168152602081019190915260400160002054919061167d565b61143f565b5060019392505050565b60065460ff1690565b600061074561081661143b565b846107f1856002600061082761143b565b6001600160a01b03908116825260208083019390935260409182016000908120918c168152925290205490611714565b61085f61143b565b6000546001600160a01b039081169116146108c1576040805162461bcd60e51b815260206004820181905260248201527f4f776e61626c653a2063616c6c6572206973206e6f7420746865206f776e6572604482015290519081900360640190fd5b600654604080517f70a08231000000000000000000000000000000000000000000000000000000008152306004820152905160009261010090046001600160a01b0316916370a08231916024808301926020929190829003018186803b15801561092a57600080fd5b505afa15801561093e573d6000803e3d6000fd5b505050506040513d602081101561095457600080fd5b50519050808211156109ee576006546040805163a9059cbb60e01b81526001600160a01b0386811660048301526024820185905291516101009093049091169163a9059cbb916044808201926020929091908290030181600087803b1580156109bc57600080fd5b505af11580156109d0573d6000803e3d6000fd5b505050506040513d60208110156109e657600080fd5b50610a779050565b6006546040805163a9059cbb60e01b81526001600160a01b0386811660048301526024820186905291516101009093049091169163a9059cbb916044808201926020929091908290030181600087803b158015610a4a57600080fd5b505af1158015610a5e573d6000803e3d6000fd5b505050506040513d6020811015610a7457600080fd5b50505b505050565b610a8461143b565b6000546001600160a01b03908116911614610ae6576040805162461bcd60e51b815260206004820181905260248201527f4f776e61626c653a2063616c6c6572206973206e6f7420746865206f776e6572604482015290519081900360640190fd5b610af0828261176e565b6001600160a01b03808316600090815260076020526040812054610b15921683611854565b5050565b6001600160a01b039081166000908152600760205260409020541690565b610b413382611991565b50565b60096020526000908152604090205463ffffffff1681565b6001600160a01b031660009081526001602052604090205490565b610b7f61143b565b6000546001600160a01b03908116911614610be1576040805162461bcd60e51b815260206004820181905260248201527f4f776e61626c653a2063616c6c6572206973206e6f7420746865206f776e6572604482015290519081900360640190fd5b600080546040516001600160a01b03909116907f8be0079c531659141344cd1fd0a4f28419497f9722a3daafe3b4186f6b6457e0908390a36000805473ffffffffffffffffffffffffffffffffffffffff19169055565b6000438210610c785760405162461bcd60e51b815260040180806020018281038252602c815260200180611e60602c913960400191505060405180910390fd5b6001600160a01b03831660009081526009602052604090205463ffffffff1680610ca6576000915050610749565b6001600160a01b038416600090815260086020908152604080832063ffffffff600019860181168552925290912054168310610d15576001600160a01b03841660009081526008602090815260408083206000199490940163ffffffff16835292905220600101549050610749565b6001600160a01b038416600090815260086020908152604080832083805290915290205463ffffffff16831015610d50576000915050610749565b600060001982015b8163ffffffff168163ffffffff161115610e0957600282820363ffffffff16048103610d82611dd9565b506001600160a01b038716600090815260086020908152604080832063ffffffff808616855290835292819020815180830190925280549093168082526001909301549181019190915290871415610de4576020015194506107499350505050565b805163ffffffff16871115610dfb57819350610e02565b6001820392505b5050610d58565b506001600160a01b038516600090815260086020908152604080832063ffffffff9094168352929052206001015491505092915050565b600a6020526000908152604090205481565b6000610e5c610e61565b905090565b6000546001600160a01b031690565b60058054604080516020601f60026000196101006001881615020190951694909404938401819004810282018101909252828152606093909290918301828280156107275780601f106106fc57610100808354040283529160200191610727565b610ed961143b565b6000546001600160a01b03908116911614610f3b576040805162461bcd60e51b815260206004820181905260248201527f4f776e61626c653a2063616c6c6572206973206e6f7420746865206f776e6572604482015290519081900360640190fd5b610af08282611a33565b6000610f4f61143b565b6000546001600160a01b03908116911614610fb1576040805162461bcd60e51b815260206004820181905260248201527f4f776e61626c653a2063616c6c6572206973206e6f7420746865206f776e6572604482015290519081900360640190fd5b610fc2610fbc61143b565b8361176e565b506001919050565b6000610745610fd761143b565b846107f185604051806060016040528060258152602001611fb3602591396002600061100161143b565b6001600160a01b03908116825260208083019390935260409182016000908120918d1681529252902054919061167d565b600061074561103f61143b565b848461152b565b6001600160a01b03811660009081526009602052604081205463ffffffff16806110715760006110a3565b6001600160a01b038316600090815260086020908152604080832063ffffffff60001986011684529091529020600101545b9392505050565b60007f8cad95687ba82c2ce50e74f7b754645e5117c3a5bec8151c0726d5857980a8666110d561069b565b805190602001206110e4611b23565b60408051602080820195909552808201939093526060830191909152306080808401919091528151808403909101815260a0830182528051908401207fe48329057bfd03d55e49b547132e39cffd9c1820ad7b9d4c5307691425d15adf60c08401526001600160a01b038b1660e084015261010083018a90526101208084018a905282518085039091018152610140840183528051908501207f19010000000000000000000000000000000000000000000000000000000000006101608501526101628401829052610182808501829052835180860390910181526101a285018085528151918701919091206000918290526101c2860180865281905260ff8b166101e287015261020286018a90526102228601899052935192965090949293909260019261024280840193601f198301929081900390910190855afa158015611232573d6000803e3d6000fd5b5050604051601f1901519150506001600160a01b0381166112845760405162461bcd60e51b815260040180806020018281038252602b815260200180611e8c602b913960400191505060405180910390fd5b6001600160a01b0381166000908152600a6020526040902080546001810190915589146112e25760405162461bcd60e51b8152600401808060200182810382526027815260200180611eb76027913960400191505060405180910390fd5b874211156113215760405162461bcd60e51b815260040180806020018281038252602b815260200180611f3f602b913960400191505060405180910390fd5b61132b818b611991565b505050505b505050505050565b6001600160a01b03918216600090815260026020908152604080832093909416825291909152205490565b7fe48329057bfd03d55e49b547132e39cffd9c1820ad7b9d4c5307691425d15adf81565b60086020908152600092835260408084209091529082529020805460019091015463ffffffff9091169082565b6113bc61143b565b6000546001600160a01b0390811691161461141e576040805162461bcd60e51b815260206004820181905260248201527f4f776e61626c653a2063616c6c6572206973206e6f7420746865206f776e6572604482015290519081900360640190fd5b610b4181611b27565b60065461010090046001600160a01b031681565b3390565b6001600160a01b0383166114845760405162461bcd60e51b8152600401808060200182810382526024815260200180611e166024913960400191505060405180910390fd5b6001600160a01b0382166114c95760405162461bcd60e51b815260040180806020018281038252602281526020018061201b6022913960400191505060405180910390fd5b6001600160a01b03808416600081815260026020908152604080832094871680845294825291829020859055815185815291517f8c5be1e5ebec7d5bd14f71427d1e84f3dd0314c0f7b2291e5b200ac8c7c3b9259281900390910190a3505050565b6001600160a01b0383166115705760405162461bcd60e51b8152600401808060200182810382526025815260200180611df16025913960400191505060405180910390fd5b6001600160a01b0382166115b55760405162461bcd60e51b8152600401808060200182810382526023815260200180611f906023913960400191505060405180910390fd5b6115f281604051806060016040528060268152602001611f6a602691396001600160a01b038616600090815260016020526040902054919061167d565b6001600160a01b0380851660009081526001602052604080822093909355908416815220546116219082611714565b6001600160a01b0380841660008181526001602090815260409182902094909455805185815290519193928716927fddf252ad1be2c89b69c2b068fc378daa952ba7f163c4a11628f55a4df523b3ef92918290030190a3505050565b6000818484111561170c5760405162461bcd60e51b81526004018080602001828103825283818151815260200191508051906020019080838360005b838110156116d15781810151838201526020016116b9565b50505050905090810190601f1680156116fe5780820380516001836020036101000a031916815260200191505b509250505060405180910390fd5b505050900390565b6000828201838110156110a3576040805162461bcd60e51b815260206004820152601b60248201527f536166654d6174683a206164646974696f6e206f766572666c6f770000000000604482015290519081900360640190fd5b6001600160a01b0382166117c9576040805162461bcd60e51b815260206004820152601f60248201527f42455032303a206d696e7420746f20746865207a65726f206164647265737300604482015290519081900360640190fd5b6003546117d69082611714565b6003556001600160a01b0382166000908152600160205260409020546117fc9082611714565b6001600160a01b03831660008181526001602090815260408083209490945583518581529351929391927fddf252ad1be2c89b69c2b068fc378daa952ba7f163c4a11628f55a4df523b3ef9281900390910190a35050565b816001600160a01b0316836001600160a01b0316141580156118765750600081115b15610a77576001600160a01b03831615611908576001600160a01b03831660009081526009602052604081205463ffffffff1690816118b65760006118e8565b6001600160a01b038516600090815260086020908152604080832063ffffffff60001987011684529091529020600101545b905060006118f68285611bd4565b905061190486848484611c16565b5050505b6001600160a01b03821615610a77576001600160a01b03821660009081526009602052604081205463ffffffff169081611943576000611975565b6001600160a01b038416600090815260086020908152604080832063ffffffff60001987011684529091529020600101545b905060006119838285611714565b905061133085848484611c16565b6001600160a01b03808316600090815260076020526040812054909116906119b884610b5c565b6001600160a01b03858116600081815260076020526040808220805473ffffffffffffffffffffffffffffffffffffffff1916898616908117909155905194955093928616927f3134e8a2e6d97e929a7e54011ea5485d7d196dd5f0ba4d4ef95803e8e3fc257f9190a4611a2d828483611854565b50505050565b6001600160a01b038216611a785760405162461bcd60e51b8152600401808060200182810382526021815260200180611fd86021913960400191505060405180910390fd5b611ab581604051806060016040528060228152602001611ff9602291396001600160a01b038516600090815260016020526040902054919061167d565b6001600160a01b038316600090815260016020526040902055600354611adb9082611bd4565b6003556040805182815290516000916001600160a01b038516917fddf252ad1be2c89b69c2b068fc378daa952ba7f163c4a11628f55a4df523b3ef9181900360200190a35050565b4690565b6001600160a01b038116611b6c5760405162461bcd60e51b8152600401808060200182810382526026815260200180611e3a6026913960400191505060405180910390fd5b600080546040516001600160a01b03808516939216917f8be0079c531659141344cd1fd0a4f28419497f9722a3daafe3b4186f6b6457e091a36000805473ffffffffffffffffffffffffffffffffffffffff19166001600160a01b0392909216919091179055565b60006110a383836040518060400160405280601e81526020017f536166654d6174683a207375627472616374696f6e206f766572666c6f77000081525061167d565b6000611c3a43604051806060016040528060398152602001611f0660399139611d7b565b905060008463ffffffff16118015611c8357506001600160a01b038516600090815260086020908152604080832063ffffffff6000198901811685529252909120548282169116145b15611cc0576001600160a01b038516600090815260086020908152604080832063ffffffff60001989011684529091529020600101829055611d31565b60408051808201825263ffffffff808416825260208083018681526001600160a01b038a166000818152600884528681208b8616825284528681209551865490861663ffffffff19918216178755925160019687015590815260099092529390208054928801909116919092161790555b604080518481526020810184905281516001600160a01b038816927fdec2bacdd2f05b59de34da9b523dff8be42e5e38e818c82fdb0bae774387a724928290030190a25050505050565b6000816401000000008410611dd15760405162461bcd60e51b81526020600482018181528351602484015283519092839260449091019190850190808383600083156116d15781810151838201526020016116b9565b509192915050565b60408051808201909152600080825260208201529056fe42455032303a207472616e736665722066726f6d20746865207a65726f206164647265737342455032303a20617070726f76652066726f6d20746865207a65726f20616464726573734f776e61626c653a206e6577206f776e657220697320746865207a65726f206164647265737350726f746f636f6c733a3a6765745072696f72566f7465733a206e6f74207965742064657465726d696e656450726f746f636f6c733a3a64656c656761746542795369673a20696e76616c6964207369676e617475726550726f746f636f6c733a3a64656c656761746542795369673a20696e76616c6964206e6f6e636542455032303a207472616e7366657220616d6f756e74206578636565647320616c6c6f77616e636550726f746f636f6c733a3a5f7772697465436865636b706f696e743a20626c6f636b206e756d6265722065786365656473203332206269747350726f746f636f6c733a3a64656c656761746542795369673a207369676e6174757265206578706972656442455032303a207472616e7366657220616d6f756e7420657863656564732062616c616e636542455032303a207472616e7366657220746f20746865207a65726f206164647265737342455032303a2064656372656173656420616c6c6f77616e63652062656c6f77207a65726f42455032303a206275726e2066726f6d20746865207a65726f206164647265737342455032303a206275726e20616d6f756e7420657863656564732062616c616e636542455032303a20617070726f766520746f20746865207a65726f2061646472657373a264697066735822122077a9c2a58a95b894036be20a4ab24e37c049bb933be67ad32a4dc832f6c8f04564736f6c634300060c0033",
  "linkReferences": {},
  "deployedLinkReferences": {}
}