{
  "_format": "hh-sol-artifact-1",
  "contractName": "MasterChef",
  "sourceName": "contracts/masterchef.sol",
  "abi": [
    {
      "inputs": [
        {
          "internalType": "contract ProtocolsToken",
          "name": "_Protocols",
          "type": "address"
        },
        {
          "internalType": "contract SyrupBar",
          "name": "_syrup",
          "type": "address"
        },
        {
          "internalType": "address",
          "name": "_devaddr",
          "type": "address"
        },
        {
          "internalType": "uint256",
          "name": "_ProtocolsPerBlock",
          "type": "uint256"
        },
        {
          "internalType": "uint256",
          "name": "_startBlock",
          "type": "uint256"
        }
      ],
      "stateMutability": "nonpayable",
      "type": "constructor"
    },
    {
      "anonymous": false,
      "inputs": [
        {
          "indexed": true,
          "internalType": "address",
          "name": "user",
          "type": "address"
        },
        {
          "indexed": true,
          "internalType": "uint256",
          "name": "pid",
          "type": "uint256"
        },
        {
          "indexed": false,
          "internalType": "uint256",
          "name": "amount",
          "type": "uint256"
        }
      ],
      "name": "Deposit",
      "type": "event"
    },
    {
      "anonymous": false,
      "inputs": [
        {
          "indexed": true,
          "internalType": "address",
          "name": "user",
          "type": "address"
        },
        {
          "indexed": true,
          "internalType": "uint256",
          "name": "pid",
          "type": "uint256"
        },
        {
          "indexed": false,
          "internalType": "uint256",
          "name": "amount",
          "type": "uint256"
        }
      ],
      "name": "EmergencyWithdraw",
      "type": "event"
    },
    {
      "anonymous": false,
      "inputs": [
        {
          "indexed": true,
          "internalType": "address",
          "name": "previousOwner",
          "type": "address"
        },
        {
          "indexed": true,
          "internalType": "address",
          "name": "newOwner",
          "type": "address"
        }
      ],
      "name": "OwnershipTransferred",
      "type": "event"
    },
    {
      "anonymous": false,
      "inputs": [
        {
          "indexed": true,
          "internalType": "address",
          "name": "user",
          "type": "address"
        },
        {
          "indexed": true,
          "internalType": "uint256",
          "name": "pid",
          "type": "uint256"
        },
        {
          "indexed": false,
          "internalType": "uint256",
          "name": "amount",
          "type": "uint256"
        }
      ],
      "name": "Withdraw",
      "type": "event"
    },
    {
      "inputs": [],
      "name": "BONUS_MULTIPLIER",
      "outputs": [
        {
          "internalType": "uint256",
          "name": "",
          "type": "uint256"
        }
      ],
      "stateMutability": "view",
      "type": "function"
    },
    {
      "inputs": [],
      "name": "Protocols",
      "outputs": [
        {
          "internalType": "contract ProtocolsToken",
          "name": "",
          "type": "address"
        }
      ],
      "stateMutability": "view",
      "type": "function"
    },
    {
      "inputs": [],
      "name": "ProtocolsPerBlock",
      "outputs": [
        {
          "internalType": "uint256",
          "name": "",
          "type": "uint256"
        }
      ],
      "stateMutability": "view",
      "type": "function"
    },
    {
      "inputs": [
        {
          "internalType": "uint256",
          "name": "_allocPoint",
          "type": "uint256"
        },
        {
          "internalType": "contract IBEP20",
          "name": "_lpToken",
          "type": "address"
        },
        {
          "internalType": "bool",
          "name": "_withUpdate",
          "type": "bool"
        }
      ],
      "name": "add",
      "outputs": [],
      "stateMutability": "nonpayable",
      "type": "function"
    },
    {
      "inputs": [
        {
          "internalType": "uint256",
          "name": "_pid",
          "type": "uint256"
        },
        {
          "internalType": "uint256",
          "name": "_amount",
          "type": "uint256"
        }
      ],
      "name": "deposit",
      "outputs": [],
      "stateMutability": "nonpayable",
      "type": "function"
    },
    {
      "inputs": [
        {
          "internalType": "address",
          "name": "_devaddr",
          "type": "address"
        }
      ],
      "name": "dev",
      "outputs": [],
      "stateMutability": "nonpayable",
      "type": "function"
    },
    {
      "inputs": [],
      "name": "devaddr",
      "outputs": [
        {
          "internalType": "address",
          "name": "",
          "type": "address"
        }
      ],
      "stateMutability": "view",
      "type": "function"
    },
    {
      "inputs": [
        {
          "internalType": "uint256",
          "name": "_pid",
          "type": "uint256"
        }
      ],
      "name": "emergencyWithdraw",
      "outputs": [],
      "stateMutability": "nonpayable",
      "type": "function"
    },
    {
      "inputs": [
        {
          "internalType": "uint256",
          "name": "_amount",
          "type": "uint256"
        }
      ],
      "name": "enterStaking",
      "outputs": [],
      "stateMutability": "nonpayable",
      "type": "function"
    },
    {
      "inputs": [
        {
          "internalType": "uint256",
          "name": "_from",
          "type": "uint256"
        },
        {
          "internalType": "uint256",
          "name": "_to",
          "type": "uint256"
        }
      ],
      "name": "getMultiplier",
      "outputs": [
        {
          "internalType": "uint256",
          "name": "",
          "type": "uint256"
        }
      ],
      "stateMutability": "view",
      "type": "function"
    },
    {
      "inputs": [
        {
          "internalType": "uint256",
          "name": "_amount",
          "type": "uint256"
        }
      ],
      "name": "leaveStaking",
      "outputs": [],
      "stateMutability": "nonpayable",
      "type": "function"
    },
    {
      "inputs": [],
      "name": "massUpdatePools",
      "outputs": [],
      "stateMutability": "nonpayable",
      "type": "function"
    },
    {
      "inputs": [
        {
          "internalType": "uint256",
          "name": "_pid",
          "type": "uint256"
        }
      ],
      "name": "migrate",
      "outputs": [],
      "stateMutability": "nonpayable",
      "type": "function"
    },
    {
      "inputs": [],
      "name": "migrator",
      "outputs": [
        {
          "internalType": "contract IMigratorChef",
          "name": "",
          "type": "address"
        }
      ],
      "stateMutability": "view",
      "type": "function"
    },
    {
      "inputs": [],
      "name": "owner",
      "outputs": [
        {
          "internalType": "address",
          "name": "",
          "type": "address"
        }
      ],
      "stateMutability": "view",
      "type": "function"
    },
    {
      "inputs": [
        {
          "internalType": "uint256",
          "name": "_pid",
          "type": "uint256"
        },
        {
          "internalType": "address",
          "name": "_user",
          "type": "address"
        }
      ],
      "name": "pendingProtocols",
      "outputs": [
        {
          "internalType": "uint256",
          "name": "",
          "type": "uint256"
        }
      ],
      "stateMutability": "view",
      "type": "function"
    },
    {
      "inputs": [
        {
          "internalType": "uint256",
          "name": "",
          "type": "uint256"
        }
      ],
      "name": "poolInfo",
      "outputs": [
        {
          "internalType": "contract IBEP20",
          "name": "lpToken",
          "type": "address"
        },
        {
          "internalType": "uint256",
          "name": "allocPoint",
          "type": "uint256"
        },
        {
          "internalType": "uint256",
          "name": "lastRewardBlock",
          "type": "uint256"
        },
        {
          "internalType": "uint256",
          "name": "accProtocolsPerShare",
          "type": "uint256"
        }
      ],
      "stateMutability": "view",
      "type": "function"
    },
    {
      "inputs": [],
      "name": "poolLength",
      "outputs": [
        {
          "internalType": "uint256",
          "name": "",
          "type": "uint256"
        }
      ],
      "stateMutability": "view",
      "type": "function"
    },
    {
      "inputs": [],
      "name": "renounceOwnership",
      "outputs": [],
      "stateMutability": "nonpayable",
      "type": "function"
    },
    {
      "inputs": [
        {
          "internalType": "uint256",
          "name": "_pid",
          "type": "uint256"
        },
        {
          "internalType": "uint256",
          "name": "_allocPoint",
          "type": "uint256"
        },
        {
          "internalType": "bool",
          "name": "_withUpdate",
          "type": "bool"
        }
      ],
      "name": "set",
      "outputs": [],
      "stateMutability": "nonpayable",
      "type": "function"
    },
    {
      "inputs": [
        {
          "internalType": "contract IMigratorChef",
          "name": "_migrator",
          "type": "address"
        }
      ],
      "name": "setMigrator",
      "outputs": [],
      "stateMutability": "nonpayable",
      "type": "function"
    },
    {
      "inputs": [],
      "name": "startBlock",
      "outputs": [
        {
          "internalType": "uint256",
          "name": "",
          "type": "uint256"
        }
      ],
      "stateMutability": "view",
      "type": "function"
    },
    {
      "inputs": [],
      "name": "syrup",
      "outputs": [
        {
          "internalType": "contract SyrupBar",
          "name": "",
          "type": "address"
        }
      ],
      "stateMutability": "view",
      "type": "function"
    },
    {
      "inputs": [],
      "name": "totalAllocPoint",
      "outputs": [
        {
          "internalType": "uint256",
          "name": "",
          "type": "uint256"
        }
      ],
      "stateMutability": "view",
      "type": "function"
    },
    {
      "inputs": [
        {
          "internalType": "address",
          "name": "newOwner",
          "type": "address"
        }
      ],
      "name": "transferOwnership",
      "outputs": [],
      "stateMutability": "nonpayable",
      "type": "function"
    },
    {
      "inputs": [
        {
          "internalType": "uint256",
          "name": "multiplierNumber",
          "type": "uint256"
        }
      ],
      "name": "updateMultiplier",
      "outputs": [],
      "stateMutability": "nonpayable",
      "type": "function"
    },
    {
      "inputs": [
        {
          "internalType": "uint256",
          "name": "_pid",
          "type": "uint256"
        }
      ],
      "name": "updatePool",
      "outputs": [],
      "stateMutability": "nonpayable",
      "type": "function"
    },
    {
      "inputs": [
        {
          "internalType": "uint256",
          "name": "",
          "type": "uint256"
        },
        {
          "internalType": "address",
          "name": "",
          "type": "address"
        }
      ],
      "name": "userInfo",
      "outputs": [
        {
          "internalType": "uint256",
          "name": "amount",
          "type": "uint256"
        },
        {
          "internalType": "uint256",
          "name": "rewardDebt",
          "type": "uint256"
        }
      ],
      "stateMutability": "view",
      "type": "function"
    },
    {
      "inputs": [
        {
          "internalType": "uint256",
          "name": "_pid",
          "type": "uint256"
        },
        {
          "internalType": "uint256",
          "name": "_amount",
          "type": "uint256"
        }
      ],
      "name": "withdraw",
      "outputs": [],
      "stateMutability": "nonpayable",
      "type": "function"
    }
  ],
  "bytecode": "0x60806040526001600555600060095534801561001a57600080fd5b50604051612434380380612434833981810160405260a081101561003d57600080fd5b5080516020820151604083015160608401516080909401519293919290919060006100666101e0565b600080546001600160a01b0319166001600160a01b0383169081178255604051929350917f8be0079c531659141344cd1fd0a4f28419497f9722a3daafe3b4186f6b6457e0908290a350600180546001600160a01b03199081166001600160a01b03978816908117835560028054831697891697909717909655600380548216958816959095179094556004928355600a829055604080516080810182529586526103e86020870181815291870193845260006060880181815260078054958601815590915296517fa66cc928b5edb82af9bd49922954155ab7b0942694bea4ce44661d9a8736c688939095029283018054909616949097169390931790935590517fa66cc928b5edb82af9bd49922954155ab7b0942694bea4ce44661d9a8736c689830155517fa66cc928b5edb82af9bd49922954155ab7b0942694bea4ce44661d9a8736c68a82015590517fa66cc928b5edb82af9bd49922954155ab7b0942694bea4ce44661d9a8736c68b909101556009556101e4565b3390565b612241806101f36000396000f3fe608060405234801561001057600080fd5b50600436106101cf5760003560e01c8063630b5ba1116101045780638da5cb5b116100a2578063e106e24f11610071578063e106e24f146104b1578063e2bbb158146104b9578063f2fde38b146104dc578063f63fff0814610502576101cf565b80638da5cb5b146104395780638dbb1e3a1461044157806393f1a40b14610464578063d49e77cd146104a9576101cf565b80637cd07e47116100de5780637cd07e47146103df57806386a952c4146104035780638aa285501461040b5780638d88a90e14610413576101cf565b8063630b5ba1146103a457806364482f79146103ac578063715018a6146103d7576101cf565b806341441d3b1161017157806348cd4cb11161014b57806348cd4cb11461034557806351eb05a61461034d5780635312ea8e1461036a5780635ffe614614610387576101cf565b806341441d3b146102e8578063441a3e7014610305578063454b060814610328576101cf565b806317caf6f1116101ad57806317caf6f11461025a578063198827c2146102625780631eaaa0451461028e57806323cf3118146102c2576101cf565b8063081e3eda146101d45780631058d281146101ee5780631526fe271461020d575b600080fd5b6101dc61050a565b60408051918252519081900360200190f35b61020b6004803603602081101561020457600080fd5b5035610510565b005b61022a6004803603602081101561022357600080fd5b5035610718565b604080516001600160a01b0390951685526020850193909352838301919091526060830152519081900360800190f35b6101dc610759565b6101dc6004803603604081101561027857600080fd5b50803590602001356001600160a01b031661075f565b61020b600480360360608110156102a457600080fd5b508035906001600160a01b03602082013516906040013515156108c9565b61020b600480360360208110156102d857600080fd5b50356001600160a01b0316610a61565b61020b600480360360208110156102fe57600080fd5b5035610aed565b61020b6004803603604081101561031b57600080fd5b5080359060200135610c81565b61020b6004803603602081101561033e57600080fd5b5035610e31565b6101dc6110c0565b61020b6004803603602081101561036357600080fd5b50356110c6565b61020b6004803603602081101561038057600080fd5b50356112ec565b61020b6004803603602081101561039d57600080fd5b5035611387565b61020b6113f6565b61020b600480360360608110156103c257600080fd5b50803590602081013590604001351515611419565b61020b611529565b6103e76115dd565b604080516001600160a01b039092168252519081900360200190f35b6103e76115ec565b6101dc6115fb565b61020b6004803603602081101561042957600080fd5b50356001600160a01b0316611601565b6103e7611682565b6101dc6004803603604081101561045757600080fd5b5080359060200135611691565b6104906004803603604081101561047a57600080fd5b50803590602001356001600160a01b03166116ac565b6040805192835260208301919091528051918290030190f35b6103e76116d0565b6101dc6116df565b61020b600480360360408110156104cf57600080fd5b50803590602001356116e5565b61020b600480360360208110156104f257600080fd5b50356001600160a01b0316611849565b6103e76118bc565b60075490565b6000600760008154811061052057fe5b600091825260208083203384527f5eff886ea0ce6ca488a3d6e336d6c0f75f46d19b42c06ce5ee98e42c96d256c790915260409092208054600490920290920192508311156105b6576040805162461bcd60e51b815260206004820152601260248201527f77697468647261773a206e6f7420676f6f640000000000000000000000000000604482015290519081900360640190fd5b6105c060006110c6565b60006105fa82600101546105f464e8d4a510006105ee876003015487600001546118cb90919063ffffffff16565b90611924565b90611966565b9050801561060c5761060c33826119a8565b831561063657815461061e9085611966565b82558254610636906001600160a01b03163386611a32565b600383015482546106519164e8d4a51000916105ee916118cb565b6001830155600254604080517f9dc29fac0000000000000000000000000000000000000000000000000000000081523360048201526024810187905290516001600160a01b0390921691639dc29fac9160448082019260009290919082900301818387803b1580156106c257600080fd5b505af11580156106d6573d6000803e3d6000fd5b5050604080518781529051600093503392507ff279e6a1f5e320cca91135676d9cb6e44ca8a08c0b88342bcdb1144f6511b5689181900360200190a350505050565b6007818154811061072557fe5b600091825260209091206004909102018054600182015460028301546003909301546001600160a01b039092169350919084565b60095481565b6000806007848154811061076f57fe5b600091825260208083208784526008825260408085206001600160a01b03898116875290845281862060049586029093016003810154815484516370a0823160e01b81523098810198909852935191985093969395939492909116926370a08231926024808301939192829003018186803b1580156107ed57600080fd5b505afa158015610801573d6000803e3d6000fd5b505050506040513d602081101561081757600080fd5b505160028501549091504311801561082e57508015155b15610894576000610843856002015443611691565b905060006108706009546105ee886001015461086a600454876118cb90919063ffffffff16565b906118cb565b905061088f610888846105ee8464e8d4a510006118cb565b8590611aa2565b935050505b6108bc83600101546105f464e8d4a510006105ee8688600001546118cb90919063ffffffff16565b9450505050505b92915050565b6108d1611afc565b6000546001600160a01b03908116911614610933576040805162461bcd60e51b815260206004820181905260248201527f4f776e61626c653a2063616c6c6572206973206e6f7420746865206f776e6572604482015290519081900360640190fd5b8015610941576109416113f6565b6000600a54431161095457600a54610956565b435b6009549091506109669085611aa2565b600955604080516080810182526001600160a01b0385811682526020820187815292820184815260006060840181815260078054600181018255925293517fa66cc928b5edb82af9bd49922954155ab7b0942694bea4ce44661d9a8736c688600490920291820180546001600160a01b031916919094161790925592517fa66cc928b5edb82af9bd49922954155ab7b0942694bea4ce44661d9a8736c68982015591517fa66cc928b5edb82af9bd49922954155ab7b0942694bea4ce44661d9a8736c68a830155517fa66cc928b5edb82af9bd49922954155ab7b0942694bea4ce44661d9a8736c68b90910155610a5b611b00565b50505050565b610a69611afc565b6000546001600160a01b03908116911614610acb576040805162461bcd60e51b815260206004820181905260248201527f4f776e61626c653a2063616c6c6572206973206e6f7420746865206f776e6572604482015290519081900360640190fd5b600680546001600160a01b0319166001600160a01b0392909216919091179055565b60006007600081548110610afd57fe5b600091825260208083203384527f5eff886ea0ce6ca488a3d6e336d6c0f75f46d19b42c06ce5ee98e42c96d256c790915260408320600490920201925090610b44906110c6565b805415610b8d576000610b7982600101546105f464e8d4a510006105ee876003015487600001546118cb90919063ffffffff16565b90508015610b8b57610b8b33826119a8565b505b8215610bb9578154610baa906001600160a01b0316333086611ba2565b8054610bb69084611aa2565b81555b60038201548154610bd49164e8d4a51000916105ee916118cb565b6001820155600254604080516340c10f1960e01b81523360048201526024810186905290516001600160a01b03909216916340c10f199160448082019260009290919082900301818387803b158015610c2c57600080fd5b505af1158015610c40573d6000803e3d6000fd5b5050604080518681529051600093503392507f90890809c654f11d6e72a28fa60149770a0d11ec6c92319d6ceb2bb0a4ea1a159181900360200190a3505050565b81610cd3576040805162461bcd60e51b815260206004820152601f60248201527f77697468647261772050726f746f636f6c7320627920756e7374616b696e6700604482015290519081900360640190fd5b600060078381548110610ce257fe5b600091825260208083208684526008825260408085203386529092529220805460049092029092019250831115610d60576040805162461bcd60e51b815260206004820152601260248201527f77697468647261773a206e6f7420676f6f640000000000000000000000000000604482015290519081900360640190fd5b610d69846110c6565b6000610d9782600101546105f464e8d4a510006105ee876003015487600001546118cb90919063ffffffff16565b90508015610da957610da933826119a8565b8315610dd3578154610dbb9085611966565b82558254610dd3906001600160a01b03163386611a32565b60038301548254610dee9164e8d4a51000916105ee916118cb565b6001830155604080518581529051869133917ff279e6a1f5e320cca91135676d9cb6e44ca8a08c0b88342bcdb1144f6511b5689181900360200190a35050505050565b6006546001600160a01b0316610e8e576040805162461bcd60e51b815260206004820152601460248201527f6d6967726174653a206e6f206d69677261746f72000000000000000000000000604482015290519081900360640190fd5b600060078281548110610e9d57fe5b600091825260208083206004928302018054604080516370a0823160e01b81523095810195909552519195506001600160a01b0316939284926370a0823192602480840193829003018186803b158015610ef657600080fd5b505afa158015610f0a573d6000803e3d6000fd5b505050506040513d6020811015610f2057600080fd5b5051600654909150610f3f906001600160a01b03848116911683611c15565b600654604080517fce5494bb0000000000000000000000000000000000000000000000000000000081526001600160a01b0385811660048301529151600093929092169163ce5494bb9160248082019260209290919082900301818787803b158015610faa57600080fd5b505af1158015610fbe573d6000803e3d6000fd5b505050506040513d6020811015610fd457600080fd5b5051604080516370a0823160e01b815230600482015290519192506001600160a01b038316916370a0823191602480820192602092909190829003018186803b15801561102057600080fd5b505afa158015611034573d6000803e3d6000fd5b505050506040513d602081101561104a57600080fd5b5051821461109f576040805162461bcd60e51b815260206004820152600c60248201527f6d6967726174653a206261640000000000000000000000000000000000000000604482015290519081900360640190fd5b83546001600160a01b0319166001600160a01b039190911617909255505050565b600a5481565b6000600782815481106110d557fe5b90600052602060002090600402019050806002015443116110f657506112e9565b8054604080516370a0823160e01b815230600482015290516000926001600160a01b0316916370a08231916024808301926020929190829003018186803b15801561114057600080fd5b505afa158015611154573d6000803e3d6000fd5b505050506040513d602081101561116a57600080fd5b50519050806111805750436002909101556112e9565b6000611190836002015443611691565b905060006111b76009546105ee866001015461086a600454876118cb90919063ffffffff16565b6001546003549192506001600160a01b03908116916340c10f1991166111de84600a611924565b6040518363ffffffff1660e01b815260040180836001600160a01b0316815260200182815260200192505050600060405180830381600087803b15801561122457600080fd5b505af1158015611238573d6000803e3d6000fd5b5050600154600254604080516340c10f1960e01b81526001600160a01b0392831660048201526024810187905290519190921693506340c10f199250604480830192600092919082900301818387803b15801561129457600080fd5b505af11580156112a8573d6000803e3d6000fd5b505050506112d66112cb846105ee64e8d4a51000856118cb90919063ffffffff16565b600386015490611aa2565b6003850155505043600290920191909155505b50565b6000600782815481106112fb57fe5b60009182526020808320858452600882526040808520338087529352909320805460049093029093018054909450611340926001600160a01b03919091169190611a32565b80546040805191825251849133917fbb757047c2b5f3974fe26b7c10f732e7bce710b0952a71082702781e62ae05959181900360200190a360008082556001909101555050565b61138f611afc565b6000546001600160a01b039081169116146113f1576040805162461bcd60e51b815260206004820181905260248201527f4f776e61626c653a2063616c6c6572206973206e6f7420746865206f776e6572604482015290519081900360640190fd5b600555565b60075460005b818110156114155761140d816110c6565b6001016113fc565b5050565b611421611afc565b6000546001600160a01b03908116911614611483576040805162461bcd60e51b815260206004820181905260248201527f4f776e61626c653a2063616c6c6572206973206e6f7420746865206f776e6572604482015290519081900360640190fd5b8015611491576114916113f6565b6114ce826114c8600786815481106114a557fe5b90600052602060002090600402016001015460095461196690919063ffffffff16565b90611aa2565b6009819055506000600784815481106114e357fe5b9060005260206000209060040201600101549050826007858154811061150557fe5b906000526020600020906004020160010181905550828114610a5b57610a5b611b00565b611531611afc565b6000546001600160a01b03908116911614611593576040805162461bcd60e51b815260206004820181905260248201527f4f776e61626c653a2063616c6c6572206973206e6f7420746865206f776e6572604482015290519081900360640190fd5b600080546040516001600160a01b03909116907f8be0079c531659141344cd1fd0a4f28419497f9722a3daafe3b4186f6b6457e0908390a3600080546001600160a01b0319169055565b6006546001600160a01b031681565b6002546001600160a01b031681565b60055481565b6003546001600160a01b03163314611660576040805162461bcd60e51b815260206004820152600960248201527f6465763a207775743f0000000000000000000000000000000000000000000000604482015290519081900360640190fd5b600380546001600160a01b0319166001600160a01b0392909216919091179055565b6000546001600160a01b031690565b6005546000906116a59061086a8486611966565b9392505050565b60086020908152600092835260408084209091529082529020805460019091015482565b6003546001600160a01b031681565b60045481565b81611737576040805162461bcd60e51b815260206004820152601c60248201527f6465706f7369742050726f746f636f6c73206279207374616b696e6700000000604482015290519081900360640190fd5b60006007838154811061174657fe5b60009182526020808320868452600882526040808520338652909252922060049091029091019150611777846110c6565b8054156117c05760006117ac82600101546105f464e8d4a510006105ee876003015487600001546118cb90919063ffffffff16565b905080156117be576117be33826119a8565b505b82156117ec5781546117dd906001600160a01b0316333086611ba2565b80546117e99084611aa2565b81555b600382015481546118079164e8d4a51000916105ee916118cb565b6001820155604080518481529051859133917f90890809c654f11d6e72a28fa60149770a0d11ec6c92319d6ceb2bb0a4ea1a159181900360200190a350505050565b611851611afc565b6000546001600160a01b039081169116146118b3576040805162461bcd60e51b815260206004820181905260248201527f4f776e61626c653a2063616c6c6572206973206e6f7420746865206f776e6572604482015290519081900360640190fd5b6112e981611d5a565b6001546001600160a01b031681565b6000826118da575060006108c3565b828202828482816118e757fe5b04146116a55760405162461bcd60e51b81526004018080602001828103825260218152602001806121b56021913960400191505060405180910390fd5b60006116a583836040518060400160405280601a81526020017f536166654d6174683a206469766973696f6e206279207a65726f000000000000815250611dfa565b60006116a583836040518060400160405280601e81526020017f536166654d6174683a207375627472616374696f6e206f766572666c6f770000815250611e9c565b600254604080517f3c0905f30000000000000000000000000000000000000000000000000000000081526001600160a01b0385811660048301526024820185905291519190921691633c0905f391604480830192600092919082900301818387803b158015611a1657600080fd5b505af1158015611a2a573d6000803e3d6000fd5b505050505050565b604080516001600160a01b038416602482015260448082018490528251808303909101815260649091019091526020810180516001600160e01b03167fa9059cbb00000000000000000000000000000000000000000000000000000000179052611a9d908490611ef6565b505050565b6000828201838110156116a5576040805162461bcd60e51b815260206004820152601b60248201527f536166654d6174683a206164646974696f6e206f766572666c6f770000000000604482015290519081900360640190fd5b3390565b600754600060015b82811015611b4b57611b4160078281548110611b2057fe5b90600052602060002090600402016001015483611aa290919063ffffffff16565b9150600101611b08565b50801561141557611b5d816003611924565b9050611b74816114c860076000815481106114a557fe5b600981905550806007600081548110611b8957fe5b9060005260206000209060040201600101819055505050565b604080516001600160a01b0380861660248301528416604482015260648082018490528251808303909101815260849091019091526020810180516001600160e01b03167f23b872dd00000000000000000000000000000000000000000000000000000000179052610a5b908590611ef6565b801580611cb45750604080517fdd62ed3e0000000000000000000000000000000000000000000000000000000081523060048201526001600160a01b03848116602483015291519185169163dd62ed3e91604480820192602092909190829003018186803b158015611c8657600080fd5b505afa158015611c9a573d6000803e3d6000fd5b505050506040513d6020811015611cb057600080fd5b5051155b611cef5760405162461bcd60e51b81526004018080602001828103825260368152602001806121d66036913960400191505060405180910390fd5b604080516001600160a01b038416602482015260448082018490528251808303909101815260649091019091526020810180516001600160e01b03167f095ea7b300000000000000000000000000000000000000000000000000000000179052611a9d908490611ef6565b6001600160a01b038116611d9f5760405162461bcd60e51b815260040180806020018281038252602681526020018061218f6026913960400191505060405180910390fd5b600080546040516001600160a01b03808516939216917f8be0079c531659141344cd1fd0a4f28419497f9722a3daafe3b4186f6b6457e091a3600080546001600160a01b0319166001600160a01b0392909216919091179055565b60008183611e865760405162461bcd60e51b81526004018080602001828103825283818151815260200191508051906020019080838360005b83811015611e4b578181015183820152602001611e33565b50505050905090810190601f168015611e785780820380516001836020036101000a031916815260200191505b509250505060405180910390fd5b506000838581611e9257fe5b0495945050505050565b60008184841115611eee5760405162461bcd60e51b8152602060048201818152835160248401528351909283926044909101919085019080838360008315611e4b578181015183820152602001611e33565b505050900390565b6060611f4b826040518060400160405280602081526020017f5361666542455032303a206c6f772d6c6576656c2063616c6c206661696c6564815250856001600160a01b0316611fa79092919063ffffffff16565b805190915015611a9d57808060200190516020811015611f6a57600080fd5b5051611a9d5760405162461bcd60e51b815260040180806020018281038252602a815260200180612165602a913960400191505060405180910390fd5b6060611fb68484600085611fbe565b949350505050565b6060611fc98561212b565b61201a576040805162461bcd60e51b815260206004820152601d60248201527f416464726573733a2063616c6c20746f206e6f6e2d636f6e7472616374000000604482015290519081900360640190fd5b60006060866001600160a01b031685876040518082805190602001908083835b602083106120595780518252601f19909201916020918201910161203a565b6001836020036101000a03801982511681845116808217855250505050505090500191505060006040518083038185875af1925050503d80600081146120bb576040519150601f19603f3d011682016040523d82523d6000602084013e6120c0565b606091505b509150915081156120d4579150611fb69050565b8051156120e45780518082602001fd5b60405162461bcd60e51b8152602060048201818152865160248401528651879391928392604401919085019080838360008315611e4b578181015183820152602001611e33565b6000813f7fc5d2460186f7233c927e7db2dcc703c0e500b653ca82273b7bfad8045d85a470818114801590611fb657505015159291505056fe5361666542455032303a204245503230206f7065726174696f6e20646964206e6f7420737563636565644f776e61626c653a206e6577206f776e657220697320746865207a65726f2061646472657373536166654d6174683a206d756c7469706c69636174696f6e206f766572666c6f775361666542455032303a20617070726f76652066726f6d206e6f6e2d7a65726f20746f206e6f6e2d7a65726f20616c6c6f77616e6365a2646970667358221220659db559d7e488ac0d3ad8ad6e725774ebd5aa7b4f20c4226ef34697b0a6180464736f6c634300060c0033",
  "linkReferences": {},
  "deployedLinkReferences": {}
}