{
  "_format": "hh-sol-artifact-1",
  "contractName": "SmartChefFactory",
  "sourceName": "contracts/smartchef.sol",
  "abi": [
    {
      "inputs": [],
      "stateMutability": "nonpayable",
      "type": "constructor"
    },
    {
      "anonymous": false,
      "inputs": [
        {
          "indexed": true,
          "internalType": "address",
          "name": "smartChef",
          "type": "address"
        }
      ],
      "name": "NewSmartChefContract",
      "type": "event"
    },
    {
      "anonymous": false,
      "inputs": [
        {
          "indexed": true,
          "internalType": "address",
          "name": "previousOwner",
          "type": "address"
        },
        {
          "indexed": true,
          "internalType": "address",
          "name": "newOwner",
          "type": "address"
        }
      ],
      "name": "OwnershipTransferred",
      "type": "event"
    },
    {
      "inputs": [
        {
          "internalType": "contract IBEP20",
          "name": "_stakedToken",
          "type": "address"
        },
        {
          "internalType": "contract IBEP20",
          "name": "_rewardToken",
          "type": "address"
        },
        {
          "internalType": "uint256",
          "name": "_rewardPerBlock",
          "type": "uint256"
        },
        {
          "internalType": "uint256",
          "name": "_startBlock",
          "type": "uint256"
        },
        {
          "internalType": "uint256",
          "name": "_bonusEndBlock",
          "type": "uint256"
        },
        {
          "internalType": "uint256",
          "name": "_poolLimitPerUser",
          "type": "uint256"
        },
        {
          "internalType": "address",
          "name": "_admin",
          "type": "address"
        }
      ],
      "name": "deployPool",
      "outputs": [],
      "stateMutability": "nonpayable",
      "type": "function"
    },
    {
      "inputs": [],
      "name": "owner",
      "outputs": [
        {
          "internalType": "address",
          "name": "",
          "type": "address"
        }
      ],
      "stateMutability": "view",
      "type": "function"
    },
    {
      "inputs": [],
      "name": "renounceOwnership",
      "outputs": [],
      "stateMutability": "nonpayable",
      "type": "function"
    },
    {
      "inputs": [
        {
          "internalType": "address",
          "name": "newOwner",
          "type": "address"
        }
      ],
      "name": "transferOwnership",
      "outputs": [],
      "stateMutability": "nonpayable",
      "type": "function"
    }
  ],
  "bytecode": "0x608060405234801561001057600080fd5b50600061001b61006a565b600080546001600160a01b0319166001600160a01b0383169081178255604051929350917f8be0079c531659141344cd1fd0a4f28419497f9722a3daafe3b4186f6b6457e0908290a35061006e565b3390565b6124628061007d6000396000f3fe608060405234801561001057600080fd5b506004361061004c5760003560e01c8063715018a6146100515780638da5cb5b1461005b578063cc8402f51461007f578063f2fde38b146100cf575b600080fd5b6100596100f5565b005b6100636101c0565b604080516001600160a01b039092168252519081900360200190f35b610059600480360360e081101561009557600080fd5b506001600160a01b038135811691602081013582169160408201359160608101359160808201359160a08101359160c090910135166101cf565b610059600480360360208110156100e557600080fd5b50356001600160a01b0316610500565b6100fd610621565b6001600160a01b031661010e6101c0565b6001600160a01b031614610169576040805162461bcd60e51b815260206004820181905260248201527f4f776e61626c653a2063616c6c6572206973206e6f7420746865206f776e6572604482015290519081900360640190fd5b600080546040516001600160a01b03909116907f8be0079c531659141344cd1fd0a4f28419497f9722a3daafe3b4186f6b6457e0908390a36000805473ffffffffffffffffffffffffffffffffffffffff19169055565b6000546001600160a01b031690565b6101d7610621565b6001600160a01b03166101e86101c0565b6001600160a01b031614610243576040805162461bcd60e51b815260206004820181905260248201527f4f776e61626c653a2063616c6c6572206973206e6f7420746865206f776e6572604482015290519081900360640190fd5b6000876001600160a01b03166318160ddd6040518163ffffffff1660e01b815260040160206040518083038186803b15801561027e57600080fd5b505afa158015610292573d6000803e3d6000fd5b505050506040513d60208110156102a857600080fd5b505110156102b557600080fd5b6000866001600160a01b03166318160ddd6040518163ffffffff1660e01b815260040160206040518083038186803b1580156102f057600080fd5b505afa158015610304573d6000803e3d6000fd5b505050506040513d602081101561031a57600080fd5b5051101561032757600080fd5b856001600160a01b0316876001600160a01b0316141561038e576040805162461bcd60e51b815260206004820152601b60248201527f546f6b656e73206d75737420626520626520646966666572656e740000000000604482015290519081900360640190fd5b6060604051806020016103a090610625565b6020820181038252601f19601f820116604052509050600088888760405160200180846001600160a01b031660601b8152601401836001600160a01b031660601b815260140182815260200193505050506040516020818303038152906040528051906020012090506000818351602085016000f5604080517f83a5041c0000000000000000000000000000000000000000000000000000000081526001600160a01b038d811660048301528c81166024830152604482018c9052606482018b9052608482018a905260a4820189905287811660c48301529151929350908316916383a5041c9160e48082019260009290919082900301818387803b1580156104a857600080fd5b505af11580156104bc573d6000803e3d6000fd5b50506040516001600160a01b03841692507fe0d103a92c6ff6c4aceb49d436f4028e0deb4884fdbcb9f32b03045eabb44a6c9150600090a250505050505050505050565b610508610621565b6001600160a01b03166105196101c0565b6001600160a01b031614610574576040805162461bcd60e51b815260206004820181905260248201527f4f776e61626c653a2063616c6c6572206973206e6f7420746865206f776e6572604482015290519081900360640190fd5b6001600160a01b0381166105b95760405162461bcd60e51b81526004018080602001828103825260268152602001806124076026913960400191505060405180910390fd5b600080546040516001600160a01b03808516939216917f8be0079c531659141344cd1fd0a4f28419497f9722a3daafe3b4186f6b6457e091a36000805473ffffffffffffffffffffffffffffffffffffffff19166001600160a01b0392909216919091179055565b3390565b611dd4806106338339019056fe608060405234801561001057600080fd5b50600061001b610080565b600080546001600160a01b0319166001600160a01b0383169081178255604051929350917f8be0079c531659141344cd1fd0a4f28419497f9722a3daafe3b4186f6b6457e0908290a35060018055600280546001600160a01b03191633179055610084565b3390565b611d41806100936000396000f3fe608060405234801561001057600080fd5b50600436106101b95760003560e01c80638da5cb5b116100f9578063bd61719111610097578063db2e21bc11610071578063db2e21bc146103e9578063f2fde38b146103f1578063f40f0f5214610417578063f7c618c11461043d576101b9565b8063bd617191146103d1578063cc7a262e146103d9578063ccd34cd5146103e1576101b9565b80639513997f116100d35780639513997f14610364578063a0b4090514610387578063a9f8d181146103ac578063b6b55f25146103b4576101b9565b80638da5cb5b146103305780638f6629151461035457806392e8990e1461035c576101b9565b80633f138d4b11610166578063715018a611610140578063715018a6146102c857806380dc0672146102d057806383a5041c146102d85780638ae39cac14610328576101b9565b80633f138d4b1461028c57806348cd4cb1146102b857806366fe9f8a146102c0576101b9565b80632e1a7d4d116101975780632e1a7d4d146102365780633279beab14610253578063392e53cd14610270576101b9565b806301f8a976146101be5780631959a002146101dd5780631aed65531461021c575b600080fd5b6101db600480360360208110156101d457600080fd5b5035610445565b005b610203600480360360208110156101f357600080fd5b50356001600160a01b031661054a565b6040805192835260208301919091528051918290030190f35b610224610563565b60408051918252519081900360200190f35b6101db6004803603602081101561024c57600080fd5b5035610569565b6101db6004803603602081101561026957600080fd5b503561070d565b61027861079b565b604080519115158252519081900360200190f35b6101db600480360360408110156102a257600080fd5b506001600160a01b0381351690602001356107ab565b610224610941565b610224610947565b6101db61094d565b6101db610a18565b6101db600480360360e08110156102ee57600080fd5b506001600160a01b038135811691602081013582169160408201359160608101359160808201359160a08101359160c09091013516610a92565b610224610cf7565b610338610cfd565b604080516001600160a01b039092168252519081900360200190f35b610224610d0c565b610278610d12565b6101db6004803603604081101561037a57600080fd5b5080359060200135610d22565b6101db6004803603604081101561039d57600080fd5b50803515159060200135610eb6565b610224611044565b6101db600480360360208110156103ca57600080fd5b503561104a565b61033861120b565b61033861121a565b610224611229565b6101db61122f565b6101db6004803603602081101561040757600080fd5b50356001600160a01b0316611306565b6102246004803603602081101561042d57600080fd5b50356001600160a01b0316611427565b61033861157e565b61044d61158d565b6001600160a01b031661045e610cfd565b6001600160a01b0316146104b9576040805162461bcd60e51b815260206004820181905260248201527f4f776e61626c653a2063616c6c6572206973206e6f7420746865206f776e6572604482015290519081900360640190fd5b600554431061050f576040805162461bcd60e51b815260206004820152601060248201527f506f6f6c20686173207374617274656400000000000000000000000000000000604482015290519081900360640190fd5b60088190556040805182815290517f0c4d677eef92893ac7ec52faf8140fc6c851ab4736302b4f3a89dfb20696a0df9181900360200190a150565b600c602052600090815260409020805460019091015482565b60045481565b600260015414156105c1576040805162461bcd60e51b815260206004820152601f60248201527f5265656e7472616e637947756172643a207265656e7472616e742063616c6c00604482015290519081900360640190fd5b6002600155336000908152600c60205260409020805482111561062b576040805162461bcd60e51b815260206004820152601b60248201527f416d6f756e7420746f20776974686472617720746f6f20686967680000000000604482015290519081900360640190fd5b610633611591565b6000610668826001015461066260095461065c600354876000015461167990919063ffffffff16565b906116db565b90611742565b9050821561069557815461067c9084611742565b8255600b54610695906001600160a01b0316338561179f565b80156106b257600a546106b2906001600160a01b0316338361179f565b60095460035483546106c9929161065c9190611679565b600183015560408051848152905133917f884edad9ce6fa2440d8a54cc123490eb96d2768479d49ff9c7366125a9424364919081900360200190a250506001805550565b61071561158d565b6001600160a01b0316610726610cfd565b6001600160a01b031614610781576040805162461bcd60e51b815260206004820181905260248201527f4f776e61626c653a2063616c6c6572206973206e6f7420746865206f776e6572604482015290519081900360640190fd5b600a54610798906001600160a01b0316338361179f565b50565b600254600160a81b900460ff1681565b6107b361158d565b6001600160a01b03166107c4610cfd565b6001600160a01b03161461081f576040805162461bcd60e51b815260206004820181905260248201527f4f776e61626c653a2063616c6c6572206973206e6f7420746865206f776e6572604482015290519081900360640190fd5b600b546001600160a01b0383811691161415610882576040805162461bcd60e51b815260206004820152601660248201527f43616e6e6f74206265207374616b656420746f6b656e00000000000000000000604482015290519081900360640190fd5b600a546001600160a01b03838116911614156108e5576040805162461bcd60e51b815260206004820152601660248201527f43616e6e6f742062652072657761726420746f6b656e00000000000000000000604482015290519081900360640190fd5b6108f96001600160a01b038316338361179f565b604080516001600160a01b03841681526020810183905281517f74545154aac348a3eac92596bd1971957ca94795f4e954ec5f613b55fab78129929181900390910190a15050565b60055481565b60075481565b61095561158d565b6001600160a01b0316610966610cfd565b6001600160a01b0316146109c1576040805162461bcd60e51b815260206004820181905260248201527f4f776e61626c653a2063616c6c6572206973206e6f7420746865206f776e6572604482015290519081900360640190fd5b600080546040516001600160a01b03909116907f8be0079c531659141344cd1fd0a4f28419497f9722a3daafe3b4186f6b6457e0908390a36000805473ffffffffffffffffffffffffffffffffffffffff19169055565b610a2061158d565b6001600160a01b0316610a31610cfd565b6001600160a01b031614610a8c576040805162461bcd60e51b815260206004820181905260248201527f4f776e61626c653a2063616c6c6572206973206e6f7420746865206f776e6572604482015290519081900360640190fd5b43600455565b600254600160a81b900460ff1615610af1576040805162461bcd60e51b815260206004820152601360248201527f416c726561647920696e697469616c697a656400000000000000000000000000604482015290519081900360640190fd5b6002546001600160a01b03163314610b50576040805162461bcd60e51b815260206004820152600b60248201527f4e6f7420666163746f7279000000000000000000000000000000000000000000604482015290519081900360640190fd5b600280547fffffffffffffffffffff00ffffffffffffffffffffffffffffffffffffffffff16600160a81b179055600b80546001600160a01b03808a1673ffffffffffffffffffffffffffffffffffffffff1992831617909255600a8054928916929091169190911790556008859055600584905560048390558115610be9576002805460ff60a01b1916600160a01b17905560078290555b600a54604080517f313ce56700000000000000000000000000000000000000000000000000000000815290516000926001600160a01b03169163313ce567916004808301926020929190829003018186803b158015610c4757600080fd5b505afa158015610c5b573d6000803e3d6000fd5b505050506040513d6020811015610c7157600080fd5b505160ff169050601e8110610ccd576040805162461bcd60e51b815260206004820152601660248201527f4d75737420626520696e666572696f7220746f20333000000000000000000000604482015290519081900360640190fd5b610cd8601e82611742565b600a0a600955600554600655610ced82611306565b5050505050505050565b60085481565b6000546001600160a01b031690565b60035481565b600254600160a01b900460ff1681565b610d2a61158d565b6001600160a01b0316610d3b610cfd565b6001600160a01b031614610d96576040805162461bcd60e51b815260206004820181905260248201527f4f776e61626c653a2063616c6c6572206973206e6f7420746865206f776e6572604482015290519081900360640190fd5b6005544310610dec576040805162461bcd60e51b815260206004820152601060248201527f506f6f6c20686173207374617274656400000000000000000000000000000000604482015290519081900360640190fd5b808210610e2a5760405162461bcd60e51b815260040180806020018281038252602e815260200180611c67602e913960400191505060405180910390fd5b814310610e685760405162461bcd60e51b8152600401808060200182810382526030815260200180611cbb6030913960400191505060405180910390fd5b600582905560048190556006829055604080518381526020810183905281517f7cd0ab87d19036f3dfadadb232c78aa4879dda3f0c994a9d637532410ee2ce06929181900390910190a15050565b610ebe61158d565b6001600160a01b0316610ecf610cfd565b6001600160a01b031614610f2a576040805162461bcd60e51b815260206004820181905260248201527f4f776e61626c653a2063616c6c6572206973206e6f7420746865206f776e6572604482015290519081900360640190fd5b600254600160a01b900460ff16610f88576040805162461bcd60e51b815260206004820152600b60248201527f4d75737420626520736574000000000000000000000000000000000000000000604482015290519081900360640190fd5b8115610fee576007548111610fe4576040805162461bcd60e51b815260206004820152601860248201527f4e6577206c696d6974206d757374206265206869676865720000000000000000604482015290519081900360640190fd5b600781905561100b565b6002805460ff60a01b1916600160a01b8415150217905560006007555b60075460408051918252517f241f67ee5f41b7a5cabf911367329be7215900f602ebfc47f89dce2a6bcd847c9181900360200190a15050565b60065481565b600260015414156110a2576040805162461bcd60e51b815260206004820152601f60248201527f5265656e7472616e637947756172643a207265656e7472616e742063616c6c00604482015290519081900360640190fd5b60026001819055336000908152600c602052604090209054600160a01b900460ff161561112c5760075481546110d9908490611824565b111561112c576040805162461bcd60e51b815260206004820152601760248201527f5573657220616d6f756e742061626f7665206c696d6974000000000000000000604482015290519081900360640190fd5b611134611591565b805415611185576000611164826001015461066260095461065c600354876000015461167990919063ffffffff16565b9050801561118357600a54611183906001600160a01b0316338361179f565b505b81156111b15780546111979083611824565b8155600b546111b1906001600160a01b031633308561187e565b60095460035482546111c8929161065c9190611679565b600182015560408051838152905133917fe1fffcc4923d04b559f4d29a8bfc6cda04eb5b0d3c460751c2402c5c5cc9109c919081900360200190a2505060018055565b6002546001600160a01b031681565b600b546001600160a01b031681565b60095481565b60026001541415611287576040805162461bcd60e51b815260206004820152601f60248201527f5265656e7472616e637947756172643a207265656e7472616e742063616c6c00604482015290519081900360640190fd5b60026001908155336000908152600c602052604081208054828255928101919091559080156112c757600b546112c7906001600160a01b0316338361179f565b8154604080519182525133917f5fafa99d0643513820be26656b45130b01e1c03062e1266bf36f88cbd3bd9695919081900360200190a2505060018055565b61130e61158d565b6001600160a01b031661131f610cfd565b6001600160a01b03161461137a576040805162461bcd60e51b815260206004820181905260248201527f4f776e61626c653a2063616c6c6572206973206e6f7420746865206f776e6572604482015290519081900360640190fd5b6001600160a01b0381166113bf5760405162461bcd60e51b8152600401808060200182810382526026815260200180611c416026913960400191505060405180910390fd5b600080546040516001600160a01b03808516939216917f8be0079c531659141344cd1fd0a4f28419497f9722a3daafe3b4186f6b6457e091a36000805473ffffffffffffffffffffffffffffffffffffffff19166001600160a01b0392909216919091179055565b6001600160a01b038082166000908152600c60209081526040808320600b5482516370a0823160e01b8152306004820152925194959194869491909216926370a082319260248083019392829003018186803b15801561148657600080fd5b505afa15801561149a573d6000803e3d6000fd5b505050506040513d60208110156114b057600080fd5b5051600654909150431180156114c557508015155b1561154d5760006114d86006544361190c565b905060006114f16008548361167990919063ffffffff16565b9050600061151a6115118561065c6009548661167990919063ffffffff16565b60035490611824565b9050611541856001015461066260095461065c858a6000015461167990919063ffffffff16565b95505050505050611579565b611574826001015461066260095461065c600354876000015461167990919063ffffffff16565b925050505b919050565b600a546001600160a01b031681565b3390565b600654431161159f57611677565b600b54604080516370a0823160e01b815230600482015290516000926001600160a01b0316916370a08231916024808301926020929190829003018186803b1580156115ea57600080fd5b505afa1580156115fe573d6000803e3d6000fd5b505050506040513d602081101561161457600080fd5b5051905080611627575043600655611677565b60006116356006544361190c565b9050600061164e6008548361167990919063ffffffff16565b905061166c6115118461065c6009548561167990919063ffffffff16565b600355505043600655505b565b600082611688575060006116d5565b8282028284828161169557fe5b04146116d25760405162461bcd60e51b8152600401808060200182810382526021815260200180611ceb6021913960400191505060405180910390fd5b90505b92915050565b6000808211611731576040805162461bcd60e51b815260206004820152601a60248201527f536166654d6174683a206469766973696f6e206279207a65726f000000000000604482015290519081900360640190fd5b81838161173a57fe5b049392505050565b600082821115611799576040805162461bcd60e51b815260206004820152601e60248201527f536166654d6174683a207375627472616374696f6e206f766572666c6f770000604482015290519081900360640190fd5b50900390565b604080516001600160a01b038416602482015260448082018490528251808303909101815260649091019091526020810180517bffffffffffffffffffffffffffffffffffffffffffffffffffffffff167fa9059cbb0000000000000000000000000000000000000000000000000000000017905261181f908490611946565b505050565b6000828201838110156116d2576040805162461bcd60e51b815260206004820152601b60248201527f536166654d6174683a206164646974696f6e206f766572666c6f770000000000604482015290519081900360640190fd5b604080516001600160a01b0380861660248301528416604482015260648082018490528251808303909101815260849091019091526020810180517bffffffffffffffffffffffffffffffffffffffffffffffffffffffff167f23b872dd00000000000000000000000000000000000000000000000000000000179052611906908590611946565b50505050565b60006004548211611928576119218284611742565b90506116d5565b6004548310611939575060006116d5565b6004546119219084611742565b606061199b826040518060400160405280602081526020017f5361666542455032303a206c6f772d6c6576656c2063616c6c206661696c6564815250856001600160a01b03166119f79092919063ffffffff16565b80519091501561181f578080602001905160208110156119ba57600080fd5b505161181f5760405162461bcd60e51b815260040180806020018281038252602a815260200180611c17602a913960400191505060405180910390fd5b6060611a068484600085611a10565b90505b9392505050565b606082471015611a515760405162461bcd60e51b8152600401808060200182810382526026815260200180611c956026913960400191505060405180910390fd5b611a5a85611b6c565b611aab576040805162461bcd60e51b815260206004820152601d60248201527f416464726573733a2063616c6c20746f206e6f6e2d636f6e7472616374000000604482015290519081900360640190fd5b60006060866001600160a01b031685876040518082805190602001908083835b60208310611aea5780518252601f199092019160209182019101611acb565b6001836020036101000a03801982511681845116808217855250505050505090500191505060006040518083038185875af1925050503d8060008114611b4c576040519150601f19603f3d011682016040523d82523d6000602084013e611b51565b606091505b5091509150611b61828286611b72565b979650505050505050565b3b151590565b60608315611b81575081611a09565b825115611b915782518084602001fd5b8160405162461bcd60e51b81526004018080602001828103825283818151815260200191508051906020019080838360005b83811015611bdb578181015183820152602001611bc3565b50505050905090810190601f168015611c085780820380516001836020036101000a031916815260200191505b509250505060405180910390fdfe5361666542455032303a204245503230206f7065726174696f6e20646964206e6f7420737563636565644f776e61626c653a206e6577206f776e657220697320746865207a65726f20616464726573734e6577207374617274426c6f636b206d757374206265206c6f776572207468616e206e657720656e64426c6f636b416464726573733a20696e73756666696369656e742062616c616e636520666f722063616c6c4e6577207374617274426c6f636b206d75737420626520686967686572207468616e2063757272656e7420626c6f636b536166654d6174683a206d756c7469706c69636174696f6e206f766572666c6f77a2646970667358221220feb756ced6679e22f2f6270da5dfddb6add7867ed4e2fa291f224cf4c8e97f3064736f6c634300060c00334f776e61626c653a206e6577206f776e657220697320746865207a65726f2061646472657373a264697066735822122088ccfecb2063697db2b9af7ec0941f7b4494bc4b950b71a1370c6e6efdda123264736f6c634300060c0033",
  "linkReferences": {},
  "deployedLinkReferences": {}
}